{
  "_format": "hh-sol-artifact-1",
  "contractName": "CrowdFunding",
  "sourceName": "contracts/CrowdFunding.sol",
  "abi": [
    {
      "anonymous": false,
      "inputs": [
        {
          "indexed": true,
          "internalType": "uint256",
          "name": "campaignId",
          "type": "uint256"
        },
        {
          "indexed": true,
          "internalType": "address",
          "name": "owner",
          "type": "address"
        },
        {
          "indexed": false,
          "internalType": "uint256",
          "name": "amountCollected",
          "type": "uint256"
        }
      ],
      "name": "CampaignAmountUpdated",
      "type": "event"
    },
    {
      "anonymous": false,
      "inputs": [
        {
          "indexed": true,
          "internalType": "uint256",
          "name": "campaignId",
          "type": "uint256"
        },
        {
          "indexed": true,
          "internalType": "address",
          "name": "owner",
          "type": "address"
        }
      ],
      "name": "CampaignCanceled",
      "type": "event"
    },
    {
      "anonymous": false,
      "inputs": [
        {
          "indexed": true,
          "internalType": "uint256",
          "name": "campaignId",
          "type": "uint256"
        },
        {
          "indexed": true,
          "internalType": "address",
          "name": "owner",
          "type": "address"
        },
        {
          "indexed": false,
          "internalType": "string",
          "name": "title",
          "type": "string"
        },
        {
          "indexed": false,
          "internalType": "uint256",
          "name": "target",
          "type": "uint256"
        },
        {
          "indexed": false,
          "internalType": "uint256",
          "name": "deadline",
          "type": "uint256"
        },
        {
          "indexed": false,
          "internalType": "string",
          "name": "image",
          "type": "string"
        }
      ],
      "name": "CampaignCreated",
      "type": "event"
    },
    {
      "anonymous": false,
      "inputs": [
        {
          "indexed": true,
          "internalType": "uint256",
          "name": "campaignId",
          "type": "uint256"
        },
        {
          "indexed": true,
          "internalType": "address",
          "name": "owner",
          "type": "address"
        },
        {
          "indexed": true,
          "internalType": "address",
          "name": "donator",
          "type": "address"
        },
        {
          "indexed": false,
          "internalType": "uint256",
          "name": "amount",
          "type": "uint256"
        }
      ],
      "name": "DonationReceived",
      "type": "event"
    },
    {
      "anonymous": false,
      "inputs": [
        {
          "indexed": true,
          "internalType": "uint256",
          "name": "campaignId",
          "type": "uint256"
        },
        {
          "indexed": true,
          "internalType": "address",
          "name": "donator",
          "type": "address"
        }
      ],
      "name": "DonationRefunded",
      "type": "event"
    },
    {
      "anonymous": false,
      "inputs": [
        {
          "indexed": true,
          "internalType": "uint256",
          "name": "campaignId",
          "type": "uint256"
        },
        {
          "indexed": true,
          "internalType": "address",
          "name": "owner",
          "type": "address"
        },
        {
          "indexed": false,
          "internalType": "uint256",
          "name": "amount",
          "type": "uint256"
        }
      ],
      "name": "FundsWithdrawn",
      "type": "event"
    },
    {
      "inputs": [
        {
          "internalType": "uint256",
          "name": "",
          "type": "uint256"
        }
      ],
      "name": "campaigns",
      "outputs": [
        {
          "internalType": "address",
          "name": "owner",
          "type": "address"
        },
        {
          "internalType": "string",
          "name": "title",
          "type": "string"
        },
        {
          "internalType": "string",
          "name": "description",
          "type": "string"
        },
        {
          "internalType": "string",
          "name": "campaignType",
          "type": "string"
        },
        {
          "internalType": "uint256",
          "name": "target",
          "type": "uint256"
        },
        {
          "internalType": "uint256",
          "name": "deadline",
          "type": "uint256"
        },
        {
          "internalType": "uint256",
          "name": "amountCollected",
          "type": "uint256"
        },
        {
          "internalType": "string",
          "name": "image",
          "type": "string"
        },
        {
          "internalType": "bool",
          "name": "withdrawn",
          "type": "bool"
        },
        {
          "internalType": "bool",
          "name": "canceled",
          "type": "bool"
        }
      ],
      "stateMutability": "view",
      "type": "function"
    },
    {
      "inputs": [
        {
          "internalType": "uint256",
          "name": "_id",
          "type": "uint256"
        }
      ],
      "name": "cancelCampaign",
      "outputs": [],
      "stateMutability": "nonpayable",
      "type": "function"
    },
    {
      "inputs": [
        {
          "internalType": "address",
          "name": "_owner",
          "type": "address"
        },
        {
          "internalType": "string",
          "name": "_title",
          "type": "string"
        },
        {
          "internalType": "string",
          "name": "_description",
          "type": "string"
        },
        {
          "internalType": "string",
          "name": "_campaignType",
          "type": "string"
        },
        {
          "internalType": "uint256",
          "name": "_target",
          "type": "uint256"
        },
        {
          "internalType": "uint256",
          "name": "_deadline",
          "type": "uint256"
        },
        {
          "internalType": "string",
          "name": "_image",
          "type": "string"
        }
      ],
      "name": "createCampaign",
      "outputs": [
        {
          "internalType": "uint256",
          "name": "",
          "type": "uint256"
        }
      ],
      "stateMutability": "nonpayable",
      "type": "function"
    },
    {
      "inputs": [
        {
          "internalType": "uint256",
          "name": "_id",
          "type": "uint256"
        }
      ],
      "name": "donateToCampaign",
      "outputs": [],
      "stateMutability": "payable",
      "type": "function"
    },
    {
      "inputs": [
        {
          "internalType": "uint256",
          "name": "_id",
          "type": "uint256"
        }
      ],
      "name": "getCampaignById",
      "outputs": [
        {
          "components": [
            {
              "internalType": "address",
              "name": "owner",
              "type": "address"
            },
            {
              "internalType": "string",
              "name": "title",
              "type": "string"
            },
            {
              "internalType": "string",
              "name": "description",
              "type": "string"
            },
            {
              "internalType": "string",
              "name": "campaignType",
              "type": "string"
            },
            {
              "internalType": "uint256",
              "name": "target",
              "type": "uint256"
            },
            {
              "internalType": "uint256",
              "name": "deadline",
              "type": "uint256"
            },
            {
              "internalType": "uint256",
              "name": "amountCollected",
              "type": "uint256"
            },
            {
              "internalType": "string",
              "name": "image",
              "type": "string"
            },
            {
              "internalType": "address[]",
              "name": "donators",
              "type": "address[]"
            },
            {
              "internalType": "uint256[]",
              "name": "donations",
              "type": "uint256[]"
            },
            {
              "internalType": "bool",
              "name": "withdrawn",
              "type": "bool"
            },
            {
              "internalType": "bool",
              "name": "canceled",
              "type": "bool"
            }
          ],
          "internalType": "struct CrowdFunding.Campaign",
          "name": "",
          "type": "tuple"
        }
      ],
      "stateMutability": "view",
      "type": "function"
    },
    {
      "inputs": [],
      "name": "getCampaigns",
      "outputs": [
        {
          "components": [
            {
              "internalType": "address",
              "name": "owner",
              "type": "address"
            },
            {
              "internalType": "string",
              "name": "title",
              "type": "string"
            },
            {
              "internalType": "string",
              "name": "description",
              "type": "string"
            },
            {
              "internalType": "string",
              "name": "campaignType",
              "type": "string"
            },
            {
              "internalType": "uint256",
              "name": "target",
              "type": "uint256"
            },
            {
              "internalType": "uint256",
              "name": "deadline",
              "type": "uint256"
            },
            {
              "internalType": "uint256",
              "name": "amountCollected",
              "type": "uint256"
            },
            {
              "internalType": "string",
              "name": "image",
              "type": "string"
            },
            {
              "internalType": "address[]",
              "name": "donators",
              "type": "address[]"
            },
            {
              "internalType": "uint256[]",
              "name": "donations",
              "type": "uint256[]"
            },
            {
              "internalType": "bool",
              "name": "withdrawn",
              "type": "bool"
            },
            {
              "internalType": "bool",
              "name": "canceled",
              "type": "bool"
            }
          ],
          "internalType": "struct CrowdFunding.Campaign[]",
          "name": "",
          "type": "tuple[]"
        }
      ],
      "stateMutability": "view",
      "type": "function"
    },
    {
      "inputs": [
        {
          "internalType": "uint256",
          "name": "_id",
          "type": "uint256"
        }
      ],
      "name": "getDonators",
      "outputs": [
        {
          "internalType": "address[]",
          "name": "",
          "type": "address[]"
        },
        {
          "internalType": "uint256[]",
          "name": "",
          "type": "uint256[]"
        }
      ],
      "stateMutability": "view",
      "type": "function"
    },
    {
      "inputs": [],
      "name": "numberOfCampaigns",
      "outputs": [
        {
          "internalType": "uint256",
          "name": "",
          "type": "uint256"
        }
      ],
      "stateMutability": "view",
      "type": "function"
    },
    {
      "inputs": [
        {
          "internalType": "address",
          "name": "_user",
          "type": "address"
        }
      ],
      "name": "paymentDetails",
      "outputs": [
        {
          "components": [
            {
              "internalType": "uint256",
              "name": "campaignId",
              "type": "uint256"
            },
            {
              "internalType": "uint256",
              "name": "amount",
              "type": "uint256"
            },
            {
              "internalType": "uint256",
              "name": "timestamp",
              "type": "uint256"
            },
            {
              "internalType": "string",
              "name": "paymentType",
              "type": "string"
            }
          ],
          "internalType": "struct CrowdFunding.PaymentDetail[]",
          "name": "",
          "type": "tuple[]"
        }
      ],
      "stateMutability": "view",
      "type": "function"
    },
    {
      "inputs": [
        {
          "internalType": "address",
          "name": "",
          "type": "address"
        },
        {
          "internalType": "uint256",
          "name": "",
          "type": "uint256"
        }
      ],
      "name": "userPayments",
      "outputs": [
        {
          "internalType": "uint256",
          "name": "campaignId",
          "type": "uint256"
        },
        {
          "internalType": "uint256",
          "name": "amount",
          "type": "uint256"
        },
        {
          "internalType": "uint256",
          "name": "timestamp",
          "type": "uint256"
        },
        {
          "internalType": "string",
          "name": "paymentType",
          "type": "string"
        }
      ],
      "stateMutability": "view",
      "type": "function"
    },
    {
      "inputs": [
        {
          "internalType": "uint256",
          "name": "_id",
          "type": "uint256"
        }
      ],
      "name": "withdraw",
      "outputs": [],
      "stateMutability": "nonpayable",
      "type": "function"
    }
  ],
  "bytecode": "0x60806040526000600255348015601457600080fd5b50613a17806100246000396000f3fe60806040526004361061009c5760003560e01c806345598b4a1161006457806345598b4a146101955780637660be5d146101be57806388c49637146101fb5780638cfeab3514610238578063a6b0363314610278578063e6ffcaa1146102a35761009c565b806307ca140d146100a15780630fa91fa9146100cc578063141961bc1461010a5780632e1a7d4d1461015057806342a4fda814610179575b600080fd5b3480156100ad57600080fd5b506100b66102e0565b6040516100c39190612147565b60405180910390f35b3480156100d857600080fd5b506100f360048036038101906100ee91906121a2565b6102e6565b60405161010192919061237d565b60405180910390f35b34801561011657600080fd5b50610131600480360381019061012c91906121a2565b61043a565b6040516101479a9998979695949392919061246e565b60405180910390f35b34801561015c57600080fd5b50610177600480360381019061017291906121a2565b6106e8565b005b610193600480360381019061018e91906121a2565b610b17565b005b3480156101a157600080fd5b506101bc60048036038101906101b791906121a2565b610f00565b005b3480156101ca57600080fd5b506101e560048036038101906101e09190612687565b61137e565b6040516101f29190612147565b60405180910390f35b34801561020757600080fd5b50610222600480360381019061021d9190612799565b6115b5565b60405161022f9190612935565b60405180910390f35b34801561024457600080fd5b5061025f600480360381019061025a9190612957565b611703565b60405161026f9493929190612997565b60405180910390f35b34801561028457600080fd5b5061028d6117d8565b60405161029a9190612cb9565b60405180910390f35b3480156102af57600080fd5b506102ca60048036038101906102c591906121a2565b611c6a565b6040516102d79190612e02565b60405180910390f35b60025481565b606080600254831061032d576040517f08c379a000000000000000000000000000000000000000000000000000000000815260040161032490612e70565b60405180910390fd5b600080848152602001908152602001600020600801600080858152602001908152602001600020600901818054806020026020016040519081016040528092919081815260200182805480156103d857602002820191906000526020600020905b8160009054906101000a900473ffffffffffffffffffffffffffffffffffffffff1673ffffffffffffffffffffffffffffffffffffffff168152602001906001019080831161038e575b505050505091508080548060200260200160405190810160405280929190818152602001828054801561042a57602002820191906000526020600020905b815481526020019060010190808311610416575b5050505050905091509150915091565b60006020528060005260406000206000915090508060000160009054906101000a900473ffffffffffffffffffffffffffffffffffffffff169080600101805461048390612ebf565b80601f01602080910402602001604051908101604052809291908181526020018280546104af90612ebf565b80156104fc5780601f106104d1576101008083540402835291602001916104fc565b820191906000526020600020905b8154815290600101906020018083116104df57829003601f168201915b50505050509080600201805461051190612ebf565b80601f016020809104026020016040519081016040528092919081815260200182805461053d90612ebf565b801561058a5780601f1061055f5761010080835404028352916020019161058a565b820191906000526020600020905b81548152906001019060200180831161056d57829003601f168201915b50505050509080600301805461059f90612ebf565b80601f01602080910402602001604051908101604052809291908181526020018280546105cb90612ebf565b80156106185780601f106105ed57610100808354040283529160200191610618565b820191906000526020600020905b8154815290600101906020018083116105fb57829003601f168201915b50505050509080600401549080600501549080600601549080600701805461063f90612ebf565b80601f016020809104026020016040519081016040528092919081815260200182805461066b90612ebf565b80156106b85780601f1061068d576101008083540402835291602001916106b8565b820191906000526020600020905b81548152906001019060200180831161069b57829003601f168201915b50505050509080600a0160009054906101000a900460ff169080600a0160019054906101000a900460ff1690508a565b600254811061072c576040517f08c379a000000000000000000000000000000000000000000000000000000000815260040161072390612e70565b60405180910390fd5b600080600083815260200190815260200160002090508060000160009054906101000a900473ffffffffffffffffffffffffffffffffffffffff1673ffffffffffffffffffffffffffffffffffffffff163373ffffffffffffffffffffffffffffffffffffffff16146107d4576040517f08c379a00000000000000000000000000000000000000000000000000000000081526004016107cb90612f3c565b60405180910390fd5b806005015442101561081b576040517f08c379a000000000000000000000000000000000000000000000000000000000815260040161081290612fce565b60405180910390fd5b80600a0160009054906101000a900460ff161561086d576040517f08c379a00000000000000000000000000000000000000000000000000000000081526004016108649061303a565b60405180910390fd5b60008160060154116108b4576040517f08c379a00000000000000000000000000000000000000000000000000000000081526004016108ab906130a6565b60405180910390fd5b60008160060154905060008260000160009054906101000a900473ffffffffffffffffffffffffffffffffffffffff1673ffffffffffffffffffffffffffffffffffffffff1682604051610907906130f7565b60006040518083038185875af1925050503d8060008114610944576040519150601f19603f3d011682016040523d82523d6000602084013e610949565b606091505b505090508061098d576040517f08c379a000000000000000000000000000000000000000000000000000000000815260040161098490613158565b60405180910390fd5b600183600a0160006101000a81548160ff021916908315150217905550600160003373ffffffffffffffffffffffffffffffffffffffff1673ffffffffffffffffffffffffffffffffffffffff16815260200190815260200160002060405180608001604052808681526020018481526020014281526020016040518060400160405280600a81526020017f7769746864726177616c0000000000000000000000000000000000000000000081525081525090806001815401808255809150506001900390600052602060002090600402016000909190919091506000820151816000015560208201518160010155604082015181600201556060820151816003019081610a9b9190613324565b5050508260000160009054906101000a900473ffffffffffffffffffffffffffffffffffffffff1673ffffffffffffffffffffffffffffffffffffffff16847ff440aec6b52895984d061d622e6edeba6210f7c3e059be920663140c084560d784604051610b099190612147565b60405180910390a350505050565b6002548110610b5b576040517f08c379a0000000000000000000000000000000000000000000000000000000008152600401610b5290612e70565b60405180910390fd5b60003411610b9e576040517f08c379a0000000000000000000000000000000000000000000000000000000008152600401610b9590613442565b60405180910390fd5b600080600083815260200190815260200160002090508060040154348260060154610bc99190613491565b1115610c0a576040517f08c379a0000000000000000000000000000000000000000000000000000000008152600401610c0190613537565b60405180910390fd5b80600a0160019054906101000a900460ff1615610c5c576040517f08c379a0000000000000000000000000000000000000000000000000000000008152600401610c53906135c9565b60405180910390fd5b34816006016000828254610c709190613491565b9250508190555080600801339080600181540180825580915050600190039060005260206000200160009091909190916101000a81548173ffffffffffffffffffffffffffffffffffffffff021916908373ffffffffffffffffffffffffffffffffffffffff16021790555080600901349080600181540180825580915050600190039060005260206000200160009091909190915055600160003373ffffffffffffffffffffffffffffffffffffffff1673ffffffffffffffffffffffffffffffffffffffff16815260200190815260200160002060405180608001604052808481526020013481526020014281526020016040518060400160405280600881526020017f646f6e6174696f6e00000000000000000000000000000000000000000000000081525081525090806001815401808255809150506001900390600052602060002090600402016000909190919091506000820151816000015560208201518160010155604082015181600201556060820151816003019081610df89190613324565b5050503373ffffffffffffffffffffffffffffffffffffffff168160000160009054906101000a900473ffffffffffffffffffffffffffffffffffffffff1673ffffffffffffffffffffffffffffffffffffffff16837f43287c3057ca71c2f01d2236b70a9e5376f802564d6de4e42634af8cf0e3f18a34604051610e7d9190612147565b60405180910390a48060000160009054906101000a900473ffffffffffffffffffffffffffffffffffffffff1673ffffffffffffffffffffffffffffffffffffffff16827fcfd7a0a4d76423380d97cb47d5f3e9a633232f159190c7899f21404b5b2cfd7f8360060154604051610ef49190612147565b60405180910390a35050565b6002548110610f44576040517f08c379a0000000000000000000000000000000000000000000000000000000008152600401610f3b90612e70565b60405180910390fd5b600080600083815260200190815260200160002090508060000160009054906101000a900473ffffffffffffffffffffffffffffffffffffffff1673ffffffffffffffffffffffffffffffffffffffff163373ffffffffffffffffffffffffffffffffffffffff1614610fec576040517f08c379a0000000000000000000000000000000000000000000000000000000008152600401610fe39061365b565b60405180910390fd5b80600a0160019054906101000a900460ff161561103e576040517f08c379a0000000000000000000000000000000000000000000000000000000008152600401611035906136c7565b60405180910390fd5b80600501544210611084576040517f08c379a000000000000000000000000000000000000000000000000000000000815260040161107b90613733565b60405180910390fd5b60005b81600801805490508110156112f45760008260080182815481106110ae576110ad613753565b5b9060005260206000200160009054906101000a900473ffffffffffffffffffffffffffffffffffffffff16905060008360090183815481106110f3576110f2613753565b5b9060005260206000200154905060008273ffffffffffffffffffffffffffffffffffffffff1682604051611126906130f7565b60006040518083038185875af1925050503d8060008114611163576040519150601f19603f3d011682016040523d82523d6000602084013e611168565b606091505b50509050806111ac576040517f08c379a00000000000000000000000000000000000000000000000000000000081526004016111a3906137f4565b60405180910390fd5b600160008473ffffffffffffffffffffffffffffffffffffffff1673ffffffffffffffffffffffffffffffffffffffff16815260200190815260200160002060405180608001604052808881526020018481526020014281526020016040518060400160405280600681526020017f726566756e6400000000000000000000000000000000000000000000000000008152508152509080600181540180825580915050600190039060005260206000209060040201600090919091909150600082015181600001556020820151816001015560408201518160020155606082015181600301908161129d9190613324565b5050508273ffffffffffffffffffffffffffffffffffffffff16867f9a9d4b2133b6673545e167237cbd0607748ce23df24ff22368225c6584c3d39060405160405180910390a35050508080600101915050611087565b50600181600a0160016101000a81548160ff0219169083151502179055508060000160009054906101000a900473ffffffffffffffffffffffffffffffffffffffff1673ffffffffffffffffffffffffffffffffffffffff16827f25bb0f0e925ec8edc724967ade03262a3ab8fd67d63d7d3d002523d366297bca60405160405180910390a35050565b60004283116113c2576040517f08c379a00000000000000000000000000000000000000000000000000000000081526004016113b990613886565b60405180910390fd5b3373ffffffffffffffffffffffffffffffffffffffff168873ffffffffffffffffffffffffffffffffffffffff1614611430576040517f08c379a0000000000000000000000000000000000000000000000000000000008152600401611427906138f2565b60405180910390fd5b600080600060025481526020019081526020016000209050888160000160006101000a81548173ffffffffffffffffffffffffffffffffffffffff021916908373ffffffffffffffffffffffffffffffffffffffff1602179055508781600101908161149c9190613324565b50868160020190816114ae9190613324565b50858160030190816114c09190613324565b5084816004018190555083816005018190555060008160060181905550828160070190816114ee9190613324565b50600081600a0160006101000a81548160ff021916908315150217905550600081600a0160016101000a81548160ff0219169083151502179055508873ffffffffffffffffffffffffffffffffffffffff166002547ff9bef86f202a8a7ac47c00e895ac2c191749da86fd955af550e31f9a52207bdb8a8888886040516115789493929190613912565b60405180910390a36002600081548092919061159390613965565b919050555060016002546115a791906139ad565b915050979650505050505050565b6060600160008373ffffffffffffffffffffffffffffffffffffffff1673ffffffffffffffffffffffffffffffffffffffff168152602001908152602001600020805480602002602001604051908101604052809291908181526020016000905b828210156116f8578382906000526020600020906004020160405180608001604052908160008201548152602001600182015481526020016002820154815260200160038201805461166790612ebf565b80601f016020809104026020016040519081016040528092919081815260200182805461169390612ebf565b80156116e05780601f106116b5576101008083540402835291602001916116e0565b820191906000526020600020905b8154815290600101906020018083116116c357829003601f168201915b50505050508152505081526020019060010190611616565b505050509050919050565b6001602052816000526040600020818154811061171f57600080fd5b90600052602060002090600402016000915091505080600001549080600101549080600201549080600301805461175590612ebf565b80601f016020809104026020016040519081016040528092919081815260200182805461178190612ebf565b80156117ce5780601f106117a3576101008083540402835291602001916117ce565b820191906000526020600020905b8154815290600101906020018083116117b157829003601f168201915b5050505050905084565b6060600060025467ffffffffffffffff8111156117f8576117f761255c565b5b60405190808252806020026020018201604052801561183157816020015b61181e6120b3565b8152602001906001900390816118165790505b50905060005b600254811015611c6257600080828152602001908152602001600020604051806101800160405290816000820160009054906101000a900473ffffffffffffffffffffffffffffffffffffffff1673ffffffffffffffffffffffffffffffffffffffff1673ffffffffffffffffffffffffffffffffffffffff1681526020016001820180546118c590612ebf565b80601f01602080910402602001604051908101604052809291908181526020018280546118f190612ebf565b801561193e5780601f106119135761010080835404028352916020019161193e565b820191906000526020600020905b81548152906001019060200180831161192157829003601f168201915b5050505050815260200160028201805461195790612ebf565b80601f016020809104026020016040519081016040528092919081815260200182805461198390612ebf565b80156119d05780601f106119a5576101008083540402835291602001916119d0565b820191906000526020600020905b8154815290600101906020018083116119b357829003601f168201915b505050505081526020016003820180546119e990612ebf565b80601f0160208091040260200160405190810160405280929190818152602001828054611a1590612ebf565b8015611a625780601f10611a3757610100808354040283529160200191611a62565b820191906000526020600020905b815481529060010190602001808311611a4557829003601f168201915b50505050508152602001600482015481526020016005820154815260200160068201548152602001600782018054611a9990612ebf565b80601f0160208091040260200160405190810160405280929190818152602001828054611ac590612ebf565b8015611b125780601f10611ae757610100808354040283529160200191611b12565b820191906000526020600020905b815481529060010190602001808311611af557829003601f168201915b5050505050815260200160088201805480602002602001604051908101604052809291908181526020018280548015611ba057602002820191906000526020600020905b8160009054906101000a900473ffffffffffffffffffffffffffffffffffffffff1673ffffffffffffffffffffffffffffffffffffffff1681526020019060010190808311611b56575b5050505050815260200160098201805480602002602001604051908101604052809291908181526020018280548015611bf857602002820191906000526020600020905b815481526020019060010190808311611be4575b50505050508152602001600a820160009054906101000a900460ff16151515158152602001600a820160019054906101000a900460ff161515151581525050828281518110611c4a57611c49613753565b5b60200260200101819052508080600101915050611837565b508091505090565b611c726120b3565b6002548210611cb6576040517f08c379a0000000000000000000000000000000000000000000000000000000008152600401611cad90612e70565b60405180910390fd5b600080838152602001908152602001600020604051806101800160405290816000820160009054906101000a900473ffffffffffffffffffffffffffffffffffffffff1673ffffffffffffffffffffffffffffffffffffffff1673ffffffffffffffffffffffffffffffffffffffff168152602001600182018054611d3a90612ebf565b80601f0160208091040260200160405190810160405280929190818152602001828054611d6690612ebf565b8015611db35780601f10611d8857610100808354040283529160200191611db3565b820191906000526020600020905b815481529060010190602001808311611d9657829003601f168201915b50505050508152602001600282018054611dcc90612ebf565b80601f0160208091040260200160405190810160405280929190818152602001828054611df890612ebf565b8015611e455780601f10611e1a57610100808354040283529160200191611e45565b820191906000526020600020905b815481529060010190602001808311611e2857829003601f168201915b50505050508152602001600382018054611e5e90612ebf565b80601f0160208091040260200160405190810160405280929190818152602001828054611e8a90612ebf565b8015611ed75780601f10611eac57610100808354040283529160200191611ed7565b820191906000526020600020905b815481529060010190602001808311611eba57829003601f168201915b50505050508152602001600482015481526020016005820154815260200160068201548152602001600782018054611f0e90612ebf565b80601f0160208091040260200160405190810160405280929190818152602001828054611f3a90612ebf565b8015611f875780601f10611f5c57610100808354040283529160200191611f87565b820191906000526020600020905b815481529060010190602001808311611f6a57829003601f168201915b505050505081526020016008820180548060200260200160405190810160405280929190818152602001828054801561201557602002820191906000526020600020905b8160009054906101000a900473ffffffffffffffffffffffffffffffffffffffff1673ffffffffffffffffffffffffffffffffffffffff1681526020019060010190808311611fcb575b505050505081526020016009820180548060200260200160405190810160405280929190818152602001828054801561206d57602002820191906000526020600020905b815481526020019060010190808311612059575b50505050508152602001600a820160009054906101000a900460ff16151515158152602001600a820160019054906101000a900460ff1615151515815250509050919050565b604051806101800160405280600073ffffffffffffffffffffffffffffffffffffffff1681526020016060815260200160608152602001606081526020016000815260200160008152602001600081526020016060815260200160608152602001606081526020016000151581526020016000151581525090565b6000819050919050565b6121418161212e565b82525050565b600060208201905061215c6000830184612138565b92915050565b6000604051905090565b600080fd5b600080fd5b61217f8161212e565b811461218a57600080fd5b50565b60008135905061219c81612176565b92915050565b6000602082840312156121b8576121b761216c565b5b60006121c68482850161218d565b91505092915050565b600081519050919050565b600082825260208201905092915050565b6000819050602082019050919050565b600073ffffffffffffffffffffffffffffffffffffffff82169050919050565b6000612226826121fb565b9050919050565b6122368161221b565b82525050565b6000612248838361222d565b60208301905092915050565b6000602082019050919050565b600061226c826121cf565b61227681856121da565b9350612281836121eb565b8060005b838110156122b2578151612299888261223c565b97506122a483612254565b925050600181019050612285565b5085935050505092915050565b600081519050919050565b600082825260208201905092915050565b6000819050602082019050919050565b6122f48161212e565b82525050565b600061230683836122eb565b60208301905092915050565b6000602082019050919050565b600061232a826122bf565b61233481856122ca565b935061233f836122db565b8060005b8381101561237057815161235788826122fa565b975061236283612312565b925050600181019050612343565b5085935050505092915050565b600060408201905081810360008301526123978185612261565b905081810360208301526123ab818461231f565b90509392505050565b6123bd8161221b565b82525050565b600081519050919050565b600082825260208201905092915050565b60005b838110156123fd5780820151818401526020810190506123e2565b60008484015250505050565b6000601f19601f8301169050919050565b6000612425826123c3565b61242f81856123ce565b935061243f8185602086016123df565b61244881612409565b840191505092915050565b60008115159050919050565b61246881612453565b82525050565b600061014082019050612484600083018d6123b4565b8181036020830152612496818c61241a565b905081810360408301526124aa818b61241a565b905081810360608301526124be818a61241a565b90506124cd6080830189612138565b6124da60a0830188612138565b6124e760c0830187612138565b81810360e08301526124f9818661241a565b905061250961010083018561245f565b61251761012083018461245f565b9b9a5050505050505050505050565b61252f8161221b565b811461253a57600080fd5b50565b60008135905061254c81612526565b92915050565b600080fd5b600080fd5b7f4e487b7100000000000000000000000000000000000000000000000000000000600052604160045260246000fd5b61259482612409565b810181811067ffffffffffffffff821117156125b3576125b261255c565b5b80604052505050565b60006125c6612162565b90506125d2828261258b565b919050565b600067ffffffffffffffff8211156125f2576125f161255c565b5b6125fb82612409565b9050602081019050919050565b82818337600083830152505050565b600061262a612625846125d7565b6125bc565b90508281526020810184848401111561264657612645612557565b5b612651848285612608565b509392505050565b600082601f83011261266e5761266d612552565b5b813561267e848260208601612617565b91505092915050565b600080600080600080600060e0888a0312156126a6576126a561216c565b5b60006126b48a828b0161253d565b975050602088013567ffffffffffffffff8111156126d5576126d4612171565b5b6126e18a828b01612659565b965050604088013567ffffffffffffffff81111561270257612701612171565b5b61270e8a828b01612659565b955050606088013567ffffffffffffffff81111561272f5761272e612171565b5b61273b8a828b01612659565b945050608061274c8a828b0161218d565b93505060a061275d8a828b0161218d565b92505060c088013567ffffffffffffffff81111561277e5761277d612171565b5b61278a8a828b01612659565b91505092959891949750929550565b6000602082840312156127af576127ae61216c565b5b60006127bd8482850161253d565b91505092915050565b600081519050919050565b600082825260208201905092915050565b6000819050602082019050919050565b600082825260208201905092915050565b600061280e826123c3565b61281881856127f2565b93506128288185602086016123df565b61283181612409565b840191505092915050565b600060808301600083015161285460008601826122eb565b50602083015161286760208601826122eb565b50604083015161287a60408601826122eb565b50606083015184820360608601526128928282612803565b9150508091505092915050565b60006128ab838361283c565b905092915050565b6000602082019050919050565b60006128cb826127c6565b6128d581856127d1565b9350836020820285016128e7856127e2565b8060005b858110156129235784840389528151612904858261289f565b945061290f836128b3565b925060208a019950506001810190506128eb565b50829750879550505050505092915050565b6000602082019050818103600083015261294f81846128c0565b905092915050565b6000806040838503121561296e5761296d61216c565b5b600061297c8582860161253d565b925050602061298d8582860161218d565b9150509250929050565b60006080820190506129ac6000830187612138565b6129b96020830186612138565b6129c66040830185612138565b81810360608301526129d8818461241a565b905095945050505050565b600081519050919050565b600082825260208201905092915050565b6000819050602082019050919050565b600082825260208201905092915050565b6000612a2b826121cf565b612a358185612a0f565b9350612a40836121eb565b8060005b83811015612a71578151612a58888261223c565b9750612a6383612254565b925050600181019050612a44565b5085935050505092915050565b600082825260208201905092915050565b6000612a9a826122bf565b612aa48185612a7e565b9350612aaf836122db565b8060005b83811015612ae0578151612ac788826122fa565b9750612ad283612312565b925050600181019050612ab3565b5085935050505092915050565b612af681612453565b82525050565b600061018083016000830151612b15600086018261222d565b5060208301518482036020860152612b2d8282612803565b91505060408301518482036040860152612b478282612803565b91505060608301518482036060860152612b618282612803565b9150506080830151612b7660808601826122eb565b5060a0830151612b8960a08601826122eb565b5060c0830151612b9c60c08601826122eb565b5060e083015184820360e0860152612bb48282612803565b915050610100830151848203610100860152612bd08282612a20565b915050610120830151848203610120860152612bec8282612a8f565b915050610140830151612c03610140860182612aed565b50610160830151612c18610160860182612aed565b508091505092915050565b6000612c2f8383612afc565b905092915050565b6000602082019050919050565b6000612c4f826129e3565b612c5981856129ee565b935083602082028501612c6b856129ff565b8060005b85811015612ca75784840389528151612c888582612c23565b9450612c9383612c37565b925060208a01995050600181019050612c6f565b50829750879550505050505092915050565b60006020820190508181036000830152612cd38184612c44565b905092915050565b600061018083016000830151612cf4600086018261222d565b5060208301518482036020860152612d0c8282612803565b91505060408301518482036040860152612d268282612803565b91505060608301518482036060860152612d408282612803565b9150506080830151612d5560808601826122eb565b5060a0830151612d6860a08601826122eb565b5060c0830151612d7b60c08601826122eb565b5060e083015184820360e0860152612d938282612803565b915050610100830151848203610100860152612daf8282612a20565b915050610120830151848203610120860152612dcb8282612a8f565b915050610140830151612de2610140860182612aed565b50610160830151612df7610160860182612aed565b508091505092915050565b60006020820190508181036000830152612e1c8184612cdb565b905092915050565b7f496e76616c696420696400000000000000000000000000000000000000000000600082015250565b6000612e5a600a836123ce565b9150612e6582612e24565b602082019050919050565b60006020820190508181036000830152612e8981612e4d565b9050919050565b7f4e487b7100000000000000000000000000000000000000000000000000000000600052602260045260246000fd5b60006002820490506001821680612ed757607f821691505b602082108103612eea57612ee9612e90565b5b50919050565b7f4f6e6c7920746865206f776e65722063616e2077697468647261770000000000600082015250565b6000612f26601b836123ce565b9150612f3182612ef0565b602082019050919050565b60006020820190508181036000830152612f5581612f19565b9050919050565b7f43616e6e6f74207769746864726177206265666f72652074686520646561646c60008201527f696e650000000000000000000000000000000000000000000000000000000000602082015250565b6000612fb86023836123ce565b9150612fc382612f5c565b604082019050919050565b60006020820190508181036000830152612fe781612fab565b9050919050565b7f46756e647320616c72656164792077697468647261776e000000000000000000600082015250565b60006130246017836123ce565b915061302f82612fee565b602082019050919050565b6000602082019050818103600083015261305381613017565b9050919050565b7f4e6f2066756e647320746f207769746864726177000000000000000000000000600082015250565b60006130906014836123ce565b915061309b8261305a565b602082019050919050565b600060208201905081810360008301526130bf81613083565b9050919050565b600081905092915050565b50565b60006130e16000836130c6565b91506130ec826130d1565b600082019050919050565b6000613102826130d4565b9150819050919050565b7f5769746864726177616c206661696c6564000000000000000000000000000000600082015250565b60006131426011836123ce565b915061314d8261310c565b602082019050919050565b6000602082019050818103600083015261317181613135565b9050919050565b60008190508160005260206000209050919050565b60006020601f8301049050919050565b600082821b905092915050565b6000600883026131da7fffffffffffffffffffffffffffffffffffffffffffffffffffffffffffffffff8261319d565b6131e4868361319d565b95508019841693508086168417925050509392505050565b6000819050919050565b600061322161321c6132178461212e565b6131fc565b61212e565b9050919050565b6000819050919050565b61323b83613206565b61324f61324782613228565b8484546131aa565b825550505050565b600090565b613264613257565b61326f818484613232565b505050565b5b818110156132935761328860008261325c565b600181019050613275565b5050565b601f8211156132d8576132a981613178565b6132b28461318d565b810160208510156132c1578190505b6132d56132cd8561318d565b830182613274565b50505b505050565b600082821c905092915050565b60006132fb600019846008026132dd565b1980831691505092915050565b600061331483836132ea565b9150826002028217905092915050565b61332d826123c3565b67ffffffffffffffff8111156133465761334561255c565b5b6133508254612ebf565b61335b828285613297565b600060209050601f83116001811461338e576000841561337c578287015190505b6133868582613308565b8655506133ee565b601f19841661339c86613178565b60005b828110156133c45784890151825560018201915060208501945060208101905061339f565b868310156133e157848901516133dd601f8916826132ea565b8355505b6001600288020188555050505b505050505050565b7f43616e6e6f7420646f6e61746520302065746865720000000000000000000000600082015250565b600061342c6015836123ce565b9150613437826133f6565b602082019050919050565b6000602082019050818103600083015261345b8161341f565b9050919050565b7f4e487b7100000000000000000000000000000000000000000000000000000000600052601160045260246000fd5b600061349c8261212e565b91506134a78361212e565b92508282019050808211156134bf576134be613462565b5b92915050565b7f53686f756c64206e6f74206578636565642063616d706169676e20746172676560008201527f7400000000000000000000000000000000000000000000000000000000000000602082015250565b60006135216021836123ce565b915061352c826134c5565b604082019050919050565b6000602082019050818103600083015261355081613514565b9050919050565b7f43616e6e6f7420646f6e61746520746f20612063616e63656c65642063616d7060008201527f6169676e00000000000000000000000000000000000000000000000000000000602082015250565b60006135b36024836123ce565b91506135be82613557565b604082019050919050565b600060208201905081810360008301526135e2816135a6565b9050919050565b7f4f6e6c7920746865206f776e65722063616e2063616e63656c2074686520636160008201527f6d706169676e0000000000000000000000000000000000000000000000000000602082015250565b60006136456026836123ce565b9150613650826135e9565b604082019050919050565b6000602082019050818103600083015261367481613638565b9050919050565b7f43616d706169676e20697320616c72656164792063616e63656c656400000000600082015250565b60006136b1601c836123ce565b91506136bc8261367b565b602082019050919050565b600060208201905081810360008301526136e0816136a4565b9050919050565b7f43616e6e6f742063616e63656c2061667465722074686520646561646c696e65600082015250565b600061371d6020836123ce565b9150613728826136e7565b602082019050919050565b6000602082019050818103600083015261374c81613710565b9050919050565b7f4e487b7100000000000000000000000000000000000000000000000000000000600052603260045260246000fd5b7f526566756e64206661696c656420666f72206f6e65206f662074686520646f6e60008201527f61746f7273000000000000000000000000000000000000000000000000000000602082015250565b60006137de6025836123ce565b91506137e982613782565b604082019050919050565b6000602082019050818103600083015261380d816137d1565b9050919050565b7f54686520646561646c696e652073686f756c642062652061206461746520696e60008201527f20746865206675747572652e0000000000000000000000000000000000000000602082015250565b6000613870602c836123ce565b915061387b82613814565b604082019050919050565b6000602082019050818103600083015261389f81613863565b9050919050565b7f4f6e6c79206f776e65722063726561746573207468652063616d706169676e00600082015250565b60006138dc601f836123ce565b91506138e7826138a6565b602082019050919050565b6000602082019050818103600083015261390b816138cf565b9050919050565b6000608082019050818103600083015261392c818761241a565b905061393b6020830186612138565b6139486040830185612138565b818103606083015261395a818461241a565b905095945050505050565b60006139708261212e565b91507fffffffffffffffffffffffffffffffffffffffffffffffffffffffffffffffff82036139a2576139a1613462565b5b600182019050919050565b60006139b88261212e565b91506139c38361212e565b92508282039050818111156139db576139da613462565b5b9291505056fea2646970667358221220cd52115df4eca9b16ecf28f378d54bf0d8f208172e6c28083c14fbe62026605e64736f6c634300081c0033",
  "linkReferences": {},
  "deployedLinkReferences": {}
}