{
  "_format": "hh-sol-artifact-1",
  "contractName": "CrowdFunding",
  "sourceName": "contracts/CrowdFunding.sol",
  "abi": [
    {
      "anonymous": false,
      "inputs": [
        {
          "indexed": true,
          "internalType": "uint256",
          "name": "campaignId",
          "type": "uint256"
        },
        {
          "indexed": false,
          "internalType": "uint256",
          "name": "amountCollected",
          "type": "uint256"
        }
      ],
      "name": "CampaignAmountUpdated",
      "type": "event"
    },
    {
      "anonymous": false,
      "inputs": [
        {
          "indexed": true,
          "internalType": "uint256",
          "name": "campaignId",
          "type": "uint256"
        }
      ],
      "name": "CampaignCanceled",
      "type": "event"
    },
    {
      "anonymous": false,
      "inputs": [
        {
          "indexed": true,
          "internalType": "uint256",
          "name": "campaignId",
          "type": "uint256"
        },
        {
          "indexed": true,
          "internalType": "address",
          "name": "owner",
          "type": "address"
        },
        {
          "indexed": false,
          "internalType": "string",
          "name": "title",
          "type": "string"
        },
        {
          "indexed": false,
          "internalType": "uint256",
          "name": "target",
          "type": "uint256"
        },
        {
          "indexed": false,
          "internalType": "uint256",
          "name": "deadline",
          "type": "uint256"
        },
        {
          "indexed": false,
          "internalType": "string",
          "name": "image",
          "type": "string"
        }
      ],
      "name": "CampaignCreated",
      "type": "event"
    },
    {
      "anonymous": false,
      "inputs": [
        {
          "indexed": true,
          "internalType": "uint256",
          "name": "campaignId",
          "type": "uint256"
        },
        {
          "indexed": true,
          "internalType": "address",
          "name": "donator",
          "type": "address"
        },
        {
          "indexed": false,
          "internalType": "uint256",
          "name": "amount",
          "type": "uint256"
        }
      ],
      "name": "DonationReceived",
      "type": "event"
    },
    {
      "anonymous": false,
      "inputs": [
        {
          "indexed": true,
          "internalType": "uint256",
          "name": "campaignId",
          "type": "uint256"
        },
        {
          "indexed": false,
          "internalType": "uint256",
          "name": "amount",
          "type": "uint256"
        }
      ],
      "name": "FundsWithdrawn",
      "type": "event"
    },
    {
      "inputs": [
        {
          "internalType": "uint256",
          "name": "",
          "type": "uint256"
        }
      ],
      "name": "campaigns",
      "outputs": [
        {
          "internalType": "address",
          "name": "owner",
          "type": "address"
        },
        {
          "internalType": "string",
          "name": "title",
          "type": "string"
        },
        {
          "internalType": "string",
          "name": "description",
          "type": "string"
        },
        {
          "internalType": "uint256",
          "name": "target",
          "type": "uint256"
        },
        {
          "internalType": "uint256",
          "name": "deadline",
          "type": "uint256"
        },
        {
          "internalType": "uint256",
          "name": "amountCollected",
          "type": "uint256"
        },
        {
          "internalType": "string",
          "name": "image",
          "type": "string"
        },
        {
          "internalType": "bool",
          "name": "withdrawn",
          "type": "bool"
        },
        {
          "internalType": "bool",
          "name": "canceled",
          "type": "bool"
        }
      ],
      "stateMutability": "view",
      "type": "function"
    },
    {
      "inputs": [
        {
          "internalType": "uint256",
          "name": "_id",
          "type": "uint256"
        }
      ],
      "name": "cancelCampaign",
      "outputs": [],
      "stateMutability": "nonpayable",
      "type": "function"
    },
    {
      "inputs": [
        {
          "internalType": "address",
          "name": "_owner",
          "type": "address"
        },
        {
          "internalType": "string",
          "name": "_title",
          "type": "string"
        },
        {
          "internalType": "string",
          "name": "_description",
          "type": "string"
        },
        {
          "internalType": "uint256",
          "name": "_target",
          "type": "uint256"
        },
        {
          "internalType": "uint256",
          "name": "_deadline",
          "type": "uint256"
        },
        {
          "internalType": "string",
          "name": "_image",
          "type": "string"
        }
      ],
      "name": "createCampaign",
      "outputs": [
        {
          "internalType": "uint256",
          "name": "",
          "type": "uint256"
        }
      ],
      "stateMutability": "nonpayable",
      "type": "function"
    },
    {
      "inputs": [
        {
          "internalType": "uint256",
          "name": "_id",
          "type": "uint256"
        }
      ],
      "name": "donateToCampaign",
      "outputs": [],
      "stateMutability": "payable",
      "type": "function"
    },
    {
      "inputs": [],
      "name": "getCampaigns",
      "outputs": [
        {
          "components": [
            {
              "internalType": "address",
              "name": "owner",
              "type": "address"
            },
            {
              "internalType": "string",
              "name": "title",
              "type": "string"
            },
            {
              "internalType": "string",
              "name": "description",
              "type": "string"
            },
            {
              "internalType": "uint256",
              "name": "target",
              "type": "uint256"
            },
            {
              "internalType": "uint256",
              "name": "deadline",
              "type": "uint256"
            },
            {
              "internalType": "uint256",
              "name": "amountCollected",
              "type": "uint256"
            },
            {
              "internalType": "string",
              "name": "image",
              "type": "string"
            },
            {
              "internalType": "address[]",
              "name": "donators",
              "type": "address[]"
            },
            {
              "internalType": "uint256[]",
              "name": "donations",
              "type": "uint256[]"
            },
            {
              "internalType": "bool",
              "name": "withdrawn",
              "type": "bool"
            },
            {
              "internalType": "bool",
              "name": "canceled",
              "type": "bool"
            }
          ],
          "internalType": "struct CrowdFunding.Campaign[]",
          "name": "",
          "type": "tuple[]"
        }
      ],
      "stateMutability": "view",
      "type": "function"
    },
    {
      "inputs": [
        {
          "internalType": "uint256",
          "name": "_id",
          "type": "uint256"
        }
      ],
      "name": "getDonators",
      "outputs": [
        {
          "internalType": "address[]",
          "name": "",
          "type": "address[]"
        },
        {
          "internalType": "uint256[]",
          "name": "",
          "type": "uint256[]"
        }
      ],
      "stateMutability": "view",
      "type": "function"
    },
    {
      "inputs": [],
      "name": "numberOfCampaigns",
      "outputs": [
        {
          "internalType": "uint256",
          "name": "",
          "type": "uint256"
        }
      ],
      "stateMutability": "view",
      "type": "function"
    },
    {
      "inputs": [
        {
          "internalType": "address",
          "name": "_user",
          "type": "address"
        }
      ],
      "name": "paymentDetails",
      "outputs": [
        {
          "components": [
            {
              "internalType": "uint256",
              "name": "campaignId",
              "type": "uint256"
            },
            {
              "internalType": "uint256",
              "name": "amount",
              "type": "uint256"
            },
            {
              "internalType": "uint256",
              "name": "timestamp",
              "type": "uint256"
            },
            {
              "internalType": "bool",
              "name": "isDonation",
              "type": "bool"
            }
          ],
          "internalType": "struct CrowdFunding.PaymentDetail[]",
          "name": "",
          "type": "tuple[]"
        }
      ],
      "stateMutability": "view",
      "type": "function"
    },
    {
      "inputs": [
        {
          "internalType": "address",
          "name": "",
          "type": "address"
        },
        {
          "internalType": "uint256",
          "name": "",
          "type": "uint256"
        }
      ],
      "name": "userPayments",
      "outputs": [
        {
          "internalType": "uint256",
          "name": "campaignId",
          "type": "uint256"
        },
        {
          "internalType": "uint256",
          "name": "amount",
          "type": "uint256"
        },
        {
          "internalType": "uint256",
          "name": "timestamp",
          "type": "uint256"
        },
        {
          "internalType": "bool",
          "name": "isDonation",
          "type": "bool"
        }
      ],
      "stateMutability": "view",
      "type": "function"
    },
    {
      "inputs": [
        {
          "internalType": "uint256",
          "name": "_id",
          "type": "uint256"
        }
      ],
      "name": "withdraw",
      "outputs": [],
      "stateMutability": "nonpayable",
      "type": "function"
    }
  ],
  "bytecode": "0x60806040526000600255348015601457600080fd5b50612f1c806100246000396000f3fe6080604052600436106100915760003560e01c806345598b4a1161005957806345598b4a1461018957806388c49637146101b25780638cfeab35146101ef5780639943e3a11461022f578063a6b036331461026c57610091565b806307ca140d146100965780630fa91fa9146100c1578063141961bc146100ff5780632e1a7d4d1461014457806342a4fda81461016d575b600080fd5b3480156100a257600080fd5b506100ab610297565b6040516100b89190611820565b60405180910390f35b3480156100cd57600080fd5b506100e860048036038101906100e3919061187b565b61029d565b6040516100f6929190611a56565b60405180910390f35b34801561010b57600080fd5b506101266004803603810190610121919061187b565b6103f1565b60405161013b99989796959493929190611b47565b60405180910390f35b34801561015057600080fd5b5061016b6004803603810190610166919061187b565b610611565b005b6101876004803603810190610182919061187b565b6109dd565b005b34801561019557600080fd5b506101b060048036038101906101ab919061187b565b610d2e565b005b3480156101be57600080fd5b506101d960048036038101906101d49190611c15565b611039565b6040516101e69190611d55565b60405180910390f35b3480156101fb57600080fd5b5061021660048036038101906102119190611d77565b611110565b6040516102269493929190611db7565b60405180910390f35b34801561023b57600080fd5b5061025660048036038101906102519190611f31565b61116a565b6040516102639190611820565b60405180910390f35b34801561027857600080fd5b5061028161138d565b60405161028e9190612307565b60405180910390f35b60025481565b60608060025483106102e4576040517f08c379a00000000000000000000000000000000000000000000000000000000081526004016102db90612375565b60405180910390fd5b6000808481526020019081526020016000206007016000808581526020019081526020016000206008018180548060200260200160405190810160405280929190818152602001828054801561038f57602002820191906000526020600020905b8160009054906101000a900473ffffffffffffffffffffffffffffffffffffffff1673ffffffffffffffffffffffffffffffffffffffff1681526020019060010190808311610345575b50505050509150808054806020026020016040519081016040528092919081815260200182805480156103e157602002820191906000526020600020905b8154815260200190600101908083116103cd575b5050505050905091509150915091565b60006020528060005260406000206000915090508060000160009054906101000a900473ffffffffffffffffffffffffffffffffffffffff169080600101805461043a906123c4565b80601f0160208091040260200160405190810160405280929190818152602001828054610466906123c4565b80156104b35780601f10610488576101008083540402835291602001916104b3565b820191906000526020600020905b81548152906001019060200180831161049657829003601f168201915b5050505050908060020180546104c8906123c4565b80601f01602080910402602001604051908101604052809291908181526020018280546104f4906123c4565b80156105415780601f1061051657610100808354040283529160200191610541565b820191906000526020600020905b81548152906001019060200180831161052457829003601f168201915b505050505090806003015490806004015490806005015490806006018054610568906123c4565b80601f0160208091040260200160405190810160405280929190818152602001828054610594906123c4565b80156105e15780601f106105b6576101008083540402835291602001916105e1565b820191906000526020600020905b8154815290600101906020018083116105c457829003601f168201915b5050505050908060090160009054906101000a900460ff16908060090160019054906101000a900460ff16905089565b60008060008381526020019081526020016000209050600254821061066b576040517f08c379a000000000000000000000000000000000000000000000000000000000815260040161066290612375565b60405180910390fd5b8060000160009054906101000a900473ffffffffffffffffffffffffffffffffffffffff1673ffffffffffffffffffffffffffffffffffffffff163373ffffffffffffffffffffffffffffffffffffffff16146106fd576040517f08c379a00000000000000000000000000000000000000000000000000000000081526004016106f490612441565b60405180910390fd5b8060040154421015610744576040517f08c379a000000000000000000000000000000000000000000000000000000000815260040161073b906124d3565b60405180910390fd5b8060090160009054906101000a900460ff1615610796576040517f08c379a000000000000000000000000000000000000000000000000000000000815260040161078d9061253f565b60405180910390fd5b60008160050154116107dd576040517f08c379a00000000000000000000000000000000000000000000000000000000081526004016107d4906125ab565b60405180910390fd5b60008160050154905060008260000160009054906101000a900473ffffffffffffffffffffffffffffffffffffffff1673ffffffffffffffffffffffffffffffffffffffff1682604051610830906125fc565b60006040518083038185875af1925050503d806000811461086d576040519150601f19603f3d011682016040523d82523d6000602084013e610872565b606091505b50509050806108b6576040517f08c379a00000000000000000000000000000000000000000000000000000000081526004016108ad9061265d565b60405180910390fd5b60018360090160006101000a81548160ff021916908315150217905550600160003373ffffffffffffffffffffffffffffffffffffffff1673ffffffffffffffffffffffffffffffffffffffff168152602001908152602001600020604051806080016040528086815260200184815260200142815260200160001515815250908060018154018082558091505060019003906000526020600020906004020160009091909190915060008201518160000155602082015181600101556040820151816002015560608201518160030160006101000a81548160ff0219169083151502179055505050837fd66662c0ded9e58fd31d5e44944bcfd07ffc15e6927ecc1382e7941cb7bd24c4836040516109cf9190611820565b60405180910390a250505050565b6002548110610a21576040517f08c379a0000000000000000000000000000000000000000000000000000000008152600401610a1890612375565b60405180910390fd5b60003490506000806000848152602001908152602001600020905060008211610a7f576040517f08c379a0000000000000000000000000000000000000000000000000000000008152600401610a76906126c9565b60405180910390fd5b8060030154828260050154610a949190612718565b1115610ad5576040517f08c379a0000000000000000000000000000000000000000000000000000000008152600401610acc906127be565b60405180910390fd5b8060090160019054906101000a900460ff1615610b27576040517f08c379a0000000000000000000000000000000000000000000000000000000008152600401610b1e90612850565b60405180910390fd5b81816005016000828254610b3b9190612718565b9250508190555080600701339080600181540180825580915050600190039060005260206000200160009091909190916101000a81548173ffffffffffffffffffffffffffffffffffffffff021916908373ffffffffffffffffffffffffffffffffffffffff16021790555080600801829080600181540180825580915050600190039060005260206000200160009091909190915055600160003373ffffffffffffffffffffffffffffffffffffffff1673ffffffffffffffffffffffffffffffffffffffff168152602001908152602001600020604051806080016040528085815260200184815260200142815260200160011515815250908060018154018082558091505060019003906000526020600020906004020160009091909190915060008201518160000155602082015181600101556040820151816002015560608201518160030160006101000a81548160ff02191690831515021790555050503373ffffffffffffffffffffffffffffffffffffffff16837f0b5b4c52969ff7329ecf7ee536409fda87812b15a8622bc6e8cdeab3aee14a2684604051610ce59190611820565b60405180910390a3827f5dc3e1568245fbdf6389dfbe760f8c8e04f86ab1aee8f52dbf833dce542468088260050154604051610d219190611820565b60405180910390a2505050565b600080600083815260200190815260200160002090506002548210610d88576040517f08c379a0000000000000000000000000000000000000000000000000000000008152600401610d7f90612375565b60405180910390fd5b8060000160009054906101000a900473ffffffffffffffffffffffffffffffffffffffff1673ffffffffffffffffffffffffffffffffffffffff163373ffffffffffffffffffffffffffffffffffffffff1614610e1a576040517f08c379a0000000000000000000000000000000000000000000000000000000008152600401610e11906128e2565b60405180910390fd5b8060090160019054906101000a900460ff1615610e6c576040517f08c379a0000000000000000000000000000000000000000000000000000000008152600401610e639061294e565b60405180910390fd5b80600401544210610eb2576040517f08c379a0000000000000000000000000000000000000000000000000000000008152600401610ea9906129ba565b60405180910390fd5b60005b8160070180549050811015610fea576000826007018281548110610edc57610edb6129da565b5b9060005260206000200160009054906101000a900473ffffffffffffffffffffffffffffffffffffffff1690506000836008018381548110610f2157610f206129da565b5b9060005260206000200154905060008273ffffffffffffffffffffffffffffffffffffffff1682604051610f54906125fc565b60006040518083038185875af1925050503d8060008114610f91576040519150601f19603f3d011682016040523d82523d6000602084013e610f96565b606091505b5050905080610fda576040517f08c379a0000000000000000000000000000000000000000000000000000000008152600401610fd190612a7b565b60405180910390fd5b5050508080600101915050610eb5565b5060018160090160016101000a81548160ff021916908315150217905550817f1925581c2be6a6ef3cd786635d86c841eb4bbdb051dce32356a44c457d03499860405160405180910390a25050565b6060600160008373ffffffffffffffffffffffffffffffffffffffff1673ffffffffffffffffffffffffffffffffffffffff168152602001908152602001600020805480602002602001604051908101604052809291908181526020016000905b8282101561110557838290600052602060002090600402016040518060800160405290816000820154815260200160018201548152602001600282015481526020016003820160009054906101000a900460ff1615151515815250508152602001906001019061109a565b505050509050919050565b6001602052816000526040600020818154811061112c57600080fd5b9060005260206000209060040201600091509150508060000154908060010154908060020154908060030160009054906101000a900460ff16905084565b600080600080600254815260200190815260200160002090504284116111c5576040517f08c379a00000000000000000000000000000000000000000000000000000000081526004016111bc90612b0d565b60405180910390fd5b3373ffffffffffffffffffffffffffffffffffffffff168873ffffffffffffffffffffffffffffffffffffffff1614611233576040517f08c379a000000000000000000000000000000000000000000000000000000000815260040161122a90612b79565b60405180910390fd5b878160000160006101000a81548173ffffffffffffffffffffffffffffffffffffffff021916908373ffffffffffffffffffffffffffffffffffffffff160217905550868160010190816112879190612d45565b50858160020190816112999190612d45565b5084816003018190555083816004018190555060008160050181905550828160060190816112c79190612d45565b5060008160090160006101000a81548160ff02191690831515021790555060008160090160016101000a81548160ff0219169083151502179055508773ffffffffffffffffffffffffffffffffffffffff166002547ff9bef86f202a8a7ac47c00e895ac2c191749da86fd955af550e31f9a52207bdb898888886040516113519493929190612e17565b60405180910390a36002600081548092919061136c90612e6a565b919050555060016002546113809190612eb2565b9150509695505050505050565b6060600060025467ffffffffffffffff8111156113ad576113ac611e06565b5b6040519080825280602002602001820160405280156113e657816020015b6113d3611793565b8152602001906001900390816113cb5790505b50905060005b60025481101561178b576000806000838152602001908152602001600020905080604051806101600160405290816000820160009054906101000a900473ffffffffffffffffffffffffffffffffffffffff1673ffffffffffffffffffffffffffffffffffffffff1673ffffffffffffffffffffffffffffffffffffffff16815260200160018201805461147f906123c4565b80601f01602080910402602001604051908101604052809291908181526020018280546114ab906123c4565b80156114f85780601f106114cd576101008083540402835291602001916114f8565b820191906000526020600020905b8154815290600101906020018083116114db57829003601f168201915b50505050508152602001600282018054611511906123c4565b80601f016020809104026020016040519081016040528092919081815260200182805461153d906123c4565b801561158a5780601f1061155f5761010080835404028352916020019161158a565b820191906000526020600020905b81548152906001019060200180831161156d57829003601f168201915b505050505081526020016003820154815260200160048201548152602001600582015481526020016006820180546115c1906123c4565b80601f01602080910402602001604051908101604052809291908181526020018280546115ed906123c4565b801561163a5780601f1061160f5761010080835404028352916020019161163a565b820191906000526020600020905b81548152906001019060200180831161161d57829003601f168201915b50505050508152602001600782018054806020026020016040519081016040528092919081815260200182805480156116c857602002820191906000526020600020905b8160009054906101000a900473ffffffffffffffffffffffffffffffffffffffff1673ffffffffffffffffffffffffffffffffffffffff168152602001906001019080831161167e575b505050505081526020016008820180548060200260200160405190810160405280929190818152602001828054801561172057602002820191906000526020600020905b81548152602001906001019080831161170c575b505050505081526020016009820160009054906101000a900460ff161515151581526020016009820160019054906101000a900460ff161515151581525050838381518110611772576117716129da565b5b60200260200101819052505080806001019150506113ec565b508091505090565b604051806101600160405280600073ffffffffffffffffffffffffffffffffffffffff16815260200160608152602001606081526020016000815260200160008152602001600081526020016060815260200160608152602001606081526020016000151581526020016000151581525090565b6000819050919050565b61181a81611807565b82525050565b60006020820190506118356000830184611811565b92915050565b6000604051905090565b600080fd5b600080fd5b61185881611807565b811461186357600080fd5b50565b6000813590506118758161184f565b92915050565b60006020828403121561189157611890611845565b5b600061189f84828501611866565b91505092915050565b600081519050919050565b600082825260208201905092915050565b6000819050602082019050919050565b600073ffffffffffffffffffffffffffffffffffffffff82169050919050565b60006118ff826118d4565b9050919050565b61190f816118f4565b82525050565b60006119218383611906565b60208301905092915050565b6000602082019050919050565b6000611945826118a8565b61194f81856118b3565b935061195a836118c4565b8060005b8381101561198b5781516119728882611915565b975061197d8361192d565b92505060018101905061195e565b5085935050505092915050565b600081519050919050565b600082825260208201905092915050565b6000819050602082019050919050565b6119cd81611807565b82525050565b60006119df83836119c4565b60208301905092915050565b6000602082019050919050565b6000611a0382611998565b611a0d81856119a3565b9350611a18836119b4565b8060005b83811015611a49578151611a3088826119d3565b9750611a3b836119eb565b925050600181019050611a1c565b5085935050505092915050565b60006040820190508181036000830152611a70818561193a565b90508181036020830152611a8481846119f8565b90509392505050565b611a96816118f4565b82525050565b600081519050919050565b600082825260208201905092915050565b60005b83811015611ad6578082015181840152602081019050611abb565b60008484015250505050565b6000601f19601f8301169050919050565b6000611afe82611a9c565b611b088185611aa7565b9350611b18818560208601611ab8565b611b2181611ae2565b840191505092915050565b60008115159050919050565b611b4181611b2c565b82525050565b600061012082019050611b5d600083018c611a8d565b8181036020830152611b6f818b611af3565b90508181036040830152611b83818a611af3565b9050611b926060830189611811565b611b9f6080830188611811565b611bac60a0830187611811565b81810360c0830152611bbe8186611af3565b9050611bcd60e0830185611b38565b611bdb610100830184611b38565b9a9950505050505050505050565b611bf2816118f4565b8114611bfd57600080fd5b50565b600081359050611c0f81611be9565b92915050565b600060208284031215611c2b57611c2a611845565b5b6000611c3984828501611c00565b91505092915050565b600081519050919050565b600082825260208201905092915050565b6000819050602082019050919050565b611c7781611b2c565b82525050565b608082016000820151611c9360008501826119c4565b506020820151611ca660208501826119c4565b506040820151611cb960408501826119c4565b506060820151611ccc6060850182611c6e565b50505050565b6000611cde8383611c7d565b60808301905092915050565b6000602082019050919050565b6000611d0282611c42565b611d0c8185611c4d565b9350611d1783611c5e565b8060005b83811015611d48578151611d2f8882611cd2565b9750611d3a83611cea565b925050600181019050611d1b565b5085935050505092915050565b60006020820190508181036000830152611d6f8184611cf7565b905092915050565b60008060408385031215611d8e57611d8d611845565b5b6000611d9c85828601611c00565b9250506020611dad85828601611866565b9150509250929050565b6000608082019050611dcc6000830187611811565b611dd96020830186611811565b611de66040830185611811565b611df36060830184611b38565b95945050505050565b600080fd5b600080fd5b7f4e487b7100000000000000000000000000000000000000000000000000000000600052604160045260246000fd5b611e3e82611ae2565b810181811067ffffffffffffffff82111715611e5d57611e5c611e06565b5b80604052505050565b6000611e7061183b565b9050611e7c8282611e35565b919050565b600067ffffffffffffffff821115611e9c57611e9b611e06565b5b611ea582611ae2565b9050602081019050919050565b82818337600083830152505050565b6000611ed4611ecf84611e81565b611e66565b905082815260208101848484011115611ef057611eef611e01565b5b611efb848285611eb2565b509392505050565b600082601f830112611f1857611f17611dfc565b5b8135611f28848260208601611ec1565b91505092915050565b60008060008060008060c08789031215611f4e57611f4d611845565b5b6000611f5c89828a01611c00565b965050602087013567ffffffffffffffff811115611f7d57611f7c61184a565b5b611f8989828a01611f03565b955050604087013567ffffffffffffffff811115611faa57611fa961184a565b5b611fb689828a01611f03565b9450506060611fc789828a01611866565b9350506080611fd889828a01611866565b92505060a087013567ffffffffffffffff811115611ff957611ff861184a565b5b61200589828a01611f03565b9150509295509295509295565b600081519050919050565b600082825260208201905092915050565b6000819050602082019050919050565b600082825260208201905092915050565b600061205a82611a9c565b612064818561203e565b9350612074818560208601611ab8565b61207d81611ae2565b840191505092915050565b600082825260208201905092915050565b60006120a4826118a8565b6120ae8185612088565b93506120b9836118c4565b8060005b838110156120ea5781516120d18882611915565b97506120dc8361192d565b9250506001810190506120bd565b5085935050505092915050565b600082825260208201905092915050565b600061211382611998565b61211d81856120f7565b9350612128836119b4565b8060005b8381101561215957815161214088826119d3565b975061214b836119eb565b92505060018101905061212c565b5085935050505092915050565b60006101608301600083015161217f6000860182611906565b5060208301518482036020860152612197828261204f565b915050604083015184820360408601526121b1828261204f565b91505060608301516121c660608601826119c4565b5060808301516121d960808601826119c4565b5060a08301516121ec60a08601826119c4565b5060c083015184820360c0860152612204828261204f565b91505060e083015184820360e086015261221e8282612099565b91505061010083015184820361010086015261223a8282612108565b915050610120830151612251610120860182611c6e565b50610140830151612266610140860182611c6e565b508091505092915050565b600061227d8383612166565b905092915050565b6000602082019050919050565b600061229d82612012565b6122a7818561201d565b9350836020820285016122b98561202e565b8060005b858110156122f557848403895281516122d68582612271565b94506122e183612285565b925060208a019950506001810190506122bd565b50829750879550505050505092915050565b600060208201905081810360008301526123218184612292565b905092915050565b7f496e76616c696420696400000000000000000000000000000000000000000000600082015250565b600061235f600a83611aa7565b915061236a82612329565b602082019050919050565b6000602082019050818103600083015261238e81612352565b9050919050565b7f4e487b7100000000000000000000000000000000000000000000000000000000600052602260045260246000fd5b600060028204905060018216806123dc57607f821691505b6020821081036123ef576123ee612395565b5b50919050565b7f4f6e6c7920746865206f776e65722063616e2077697468647261770000000000600082015250565b600061242b601b83611aa7565b9150612436826123f5565b602082019050919050565b6000602082019050818103600083015261245a8161241e565b9050919050565b7f43616e6e6f74207769746864726177206265666f72652074686520646561646c60008201527f696e650000000000000000000000000000000000000000000000000000000000602082015250565b60006124bd602383611aa7565b91506124c882612461565b604082019050919050565b600060208201905081810360008301526124ec816124b0565b9050919050565b7f46756e647320616c72656164792077697468647261776e000000000000000000600082015250565b6000612529601783611aa7565b9150612534826124f3565b602082019050919050565b600060208201905081810360008301526125588161251c565b9050919050565b7f4e6f2066756e647320746f207769746864726177000000000000000000000000600082015250565b6000612595601483611aa7565b91506125a08261255f565b602082019050919050565b600060208201905081810360008301526125c481612588565b9050919050565b600081905092915050565b50565b60006125e66000836125cb565b91506125f1826125d6565b600082019050919050565b6000612607826125d9565b9150819050919050565b7f5769746864726177616c206661696c6564000000000000000000000000000000600082015250565b6000612647601183611aa7565b915061265282612611565b602082019050919050565b600060208201905081810360008301526126768161263a565b9050919050565b7f43616e6e6f7420646f6e61746520302065746865720000000000000000000000600082015250565b60006126b3601583611aa7565b91506126be8261267d565b602082019050919050565b600060208201905081810360008301526126e2816126a6565b9050919050565b7f4e487b7100000000000000000000000000000000000000000000000000000000600052601160045260246000fd5b600061272382611807565b915061272e83611807565b9250828201905080821115612746576127456126e9565b5b92915050565b7f53686f756c64206e6f74206578636565642063616d706169676e20746172676560008201527f7400000000000000000000000000000000000000000000000000000000000000602082015250565b60006127a8602183611aa7565b91506127b38261274c565b604082019050919050565b600060208201905081810360008301526127d78161279b565b9050919050565b7f43616e6e6f7420646f6e61746520746f20612063616e63656c65642063616d7060008201527f6169676e00000000000000000000000000000000000000000000000000000000602082015250565b600061283a602483611aa7565b9150612845826127de565b604082019050919050565b600060208201905081810360008301526128698161282d565b9050919050565b7f4f6e6c7920746865206f776e65722063616e2063616e63656c2074686520636160008201527f6d706169676e0000000000000000000000000000000000000000000000000000602082015250565b60006128cc602683611aa7565b91506128d782612870565b604082019050919050565b600060208201905081810360008301526128fb816128bf565b9050919050565b7f43616d706169676e20697320616c72656164792063616e63656c656400000000600082015250565b6000612938601c83611aa7565b915061294382612902565b602082019050919050565b600060208201905081810360008301526129678161292b565b9050919050565b7f43616e6e6f742063616e63656c2061667465722074686520646561646c696e65600082015250565b60006129a4602083611aa7565b91506129af8261296e565b602082019050919050565b600060208201905081810360008301526129d381612997565b9050919050565b7f4e487b7100000000000000000000000000000000000000000000000000000000600052603260045260246000fd5b7f526566756e64206661696c656420666f72206f6e65206f662074686520646f6e60008201527f61746f7273000000000000000000000000000000000000000000000000000000602082015250565b6000612a65602583611aa7565b9150612a7082612a09565b604082019050919050565b60006020820190508181036000830152612a9481612a58565b9050919050565b7f54686520646561646c696e652073686f756c642062652061206461746520696e60008201527f20746865206675747572652e0000000000000000000000000000000000000000602082015250565b6000612af7602c83611aa7565b9150612b0282612a9b565b604082019050919050565b60006020820190508181036000830152612b2681612aea565b9050919050565b7f4f6e6c79206f776e65722063726561746573207468652063616d706169676e00600082015250565b6000612b63601f83611aa7565b9150612b6e82612b2d565b602082019050919050565b60006020820190508181036000830152612b9281612b56565b9050919050565b60008190508160005260206000209050919050565b60006020601f8301049050919050565b600082821b905092915050565b600060088302612bfb7fffffffffffffffffffffffffffffffffffffffffffffffffffffffffffffffff82612bbe565b612c058683612bbe565b95508019841693508086168417925050509392505050565b6000819050919050565b6000612c42612c3d612c3884611807565b612c1d565b611807565b9050919050565b6000819050919050565b612c5c83612c27565b612c70612c6882612c49565b848454612bcb565b825550505050565b600090565b612c85612c78565b612c90818484612c53565b505050565b5b81811015612cb457612ca9600082612c7d565b600181019050612c96565b5050565b601f821115612cf957612cca81612b99565b612cd384612bae565b81016020851015612ce2578190505b612cf6612cee85612bae565b830182612c95565b50505b505050565b600082821c905092915050565b6000612d1c60001984600802612cfe565b1980831691505092915050565b6000612d358383612d0b565b9150826002028217905092915050565b612d4e82611a9c565b67ffffffffffffffff811115612d6757612d66611e06565b5b612d7182546123c4565b612d7c828285612cb8565b600060209050601f831160018114612daf5760008415612d9d578287015190505b612da78582612d29565b865550612e0f565b601f198416612dbd86612b99565b60005b82811015612de557848901518255600182019150602085019450602081019050612dc0565b86831015612e025784890151612dfe601f891682612d0b565b8355505b6001600288020188555050505b505050505050565b60006080820190508181036000830152612e318187611af3565b9050612e406020830186611811565b612e4d6040830185611811565b8181036060830152612e5f8184611af3565b905095945050505050565b6000612e7582611807565b91507fffffffffffffffffffffffffffffffffffffffffffffffffffffffffffffffff8203612ea757612ea66126e9565b5b600182019050919050565b6000612ebd82611807565b9150612ec883611807565b9250828203905081811115612ee057612edf6126e9565b5b9291505056fea26469706673582212209128083737cdbc627a8f3ff5dae33fe77fe7e740366d409eaf192d0b8d42ee8864736f6c634300081c0033",
  "linkReferences": {},
  "deployedLinkReferences": {}
}