{
  "_format": "hh-sol-artifact-1",
  "contractName": "CrowdFunding",
  "sourceName": "contracts/CrowdFunding.sol",
  "abi": [
    {
      "anonymous": false,
      "inputs": [
        {
          "indexed": true,
          "internalType": "uint256",
          "name": "campaignId",
          "type": "uint256"
        },
        {
          "indexed": true,
          "internalType": "address",
          "name": "owner",
          "type": "address"
        },
        {
          "indexed": false,
          "internalType": "uint256",
          "name": "amountCollected",
          "type": "uint256"
        }
      ],
      "name": "CampaignAmountUpdated",
      "type": "event"
    },
    {
      "anonymous": false,
      "inputs": [
        {
          "indexed": true,
          "internalType": "uint256",
          "name": "campaignId",
          "type": "uint256"
        },
        {
          "indexed": true,
          "internalType": "address",
          "name": "owner",
          "type": "address"
        }
      ],
      "name": "CampaignCanceled",
      "type": "event"
    },
    {
      "anonymous": false,
      "inputs": [
        {
          "indexed": true,
          "internalType": "uint256",
          "name": "campaignId",
          "type": "uint256"
        },
        {
          "indexed": true,
          "internalType": "address",
          "name": "owner",
          "type": "address"
        },
        {
          "indexed": false,
          "internalType": "string",
          "name": "title",
          "type": "string"
        },
        {
          "indexed": false,
          "internalType": "uint256",
          "name": "target",
          "type": "uint256"
        },
        {
          "indexed": false,
          "internalType": "uint256",
          "name": "deadline",
          "type": "uint256"
        },
        {
          "indexed": false,
          "internalType": "string",
          "name": "image",
          "type": "string"
        }
      ],
      "name": "CampaignCreated",
      "type": "event"
    },
    {
      "anonymous": false,
      "inputs": [
        {
          "indexed": true,
          "internalType": "uint256",
          "name": "campaignId",
          "type": "uint256"
        },
        {
          "indexed": true,
          "internalType": "address",
          "name": "owner",
          "type": "address"
        },
        {
          "indexed": true,
          "internalType": "address",
          "name": "donator",
          "type": "address"
        },
        {
          "indexed": false,
          "internalType": "uint256",
          "name": "amount",
          "type": "uint256"
        }
      ],
      "name": "DonationReceived",
      "type": "event"
    },
    {
      "anonymous": false,
      "inputs": [
        {
          "indexed": true,
          "internalType": "uint256",
          "name": "campaignId",
          "type": "uint256"
        },
        {
          "indexed": true,
          "internalType": "address",
          "name": "_donator",
          "type": "address"
        }
      ],
      "name": "DonationRefunded",
      "type": "event"
    },
    {
      "anonymous": false,
      "inputs": [
        {
          "indexed": true,
          "internalType": "uint256",
          "name": "campaignId",
          "type": "uint256"
        },
        {
          "indexed": true,
          "internalType": "address",
          "name": "owner",
          "type": "address"
        },
        {
          "indexed": false,
          "internalType": "uint256",
          "name": "amount",
          "type": "uint256"
        }
      ],
      "name": "FundsWithdrawn",
      "type": "event"
    },
    {
      "inputs": [
        {
          "internalType": "uint256",
          "name": "",
          "type": "uint256"
        }
      ],
      "name": "campaigns",
      "outputs": [
        {
          "internalType": "address",
          "name": "owner",
          "type": "address"
        },
        {
          "internalType": "string",
          "name": "title",
          "type": "string"
        },
        {
          "internalType": "string",
          "name": "description",
          "type": "string"
        },
        {
          "internalType": "string",
          "name": "campaignType",
          "type": "string"
        },
        {
          "internalType": "uint256",
          "name": "target",
          "type": "uint256"
        },
        {
          "internalType": "uint256",
          "name": "deadline",
          "type": "uint256"
        },
        {
          "internalType": "uint256",
          "name": "amountCollected",
          "type": "uint256"
        },
        {
          "internalType": "string",
          "name": "image",
          "type": "string"
        },
        {
          "internalType": "bool",
          "name": "withdrawn",
          "type": "bool"
        },
        {
          "internalType": "bool",
          "name": "canceled",
          "type": "bool"
        }
      ],
      "stateMutability": "view",
      "type": "function"
    },
    {
      "inputs": [
        {
          "internalType": "uint256",
          "name": "_id",
          "type": "uint256"
        }
      ],
      "name": "cancelCampaign",
      "outputs": [],
      "stateMutability": "nonpayable",
      "type": "function"
    },
    {
      "inputs": [
        {
          "internalType": "address",
          "name": "_owner",
          "type": "address"
        },
        {
          "internalType": "string",
          "name": "_title",
          "type": "string"
        },
        {
          "internalType": "string",
          "name": "_description",
          "type": "string"
        },
        {
          "internalType": "string",
          "name": "_campaignType",
          "type": "string"
        },
        {
          "internalType": "uint256",
          "name": "_target",
          "type": "uint256"
        },
        {
          "internalType": "uint256",
          "name": "_deadline",
          "type": "uint256"
        },
        {
          "internalType": "string",
          "name": "_image",
          "type": "string"
        }
      ],
      "name": "createCampaign",
      "outputs": [
        {
          "internalType": "uint256",
          "name": "",
          "type": "uint256"
        }
      ],
      "stateMutability": "nonpayable",
      "type": "function"
    },
    {
      "inputs": [
        {
          "internalType": "uint256",
          "name": "_id",
          "type": "uint256"
        }
      ],
      "name": "donateToCampaign",
      "outputs": [],
      "stateMutability": "payable",
      "type": "function"
    },
    {
      "inputs": [
        {
          "internalType": "uint256",
          "name": "_id",
          "type": "uint256"
        }
      ],
      "name": "getCampaignById",
      "outputs": [
        {
          "components": [
            {
              "internalType": "address",
              "name": "owner",
              "type": "address"
            },
            {
              "internalType": "string",
              "name": "title",
              "type": "string"
            },
            {
              "internalType": "string",
              "name": "description",
              "type": "string"
            },
            {
              "internalType": "string",
              "name": "campaignType",
              "type": "string"
            },
            {
              "internalType": "uint256",
              "name": "target",
              "type": "uint256"
            },
            {
              "internalType": "uint256",
              "name": "deadline",
              "type": "uint256"
            },
            {
              "internalType": "uint256",
              "name": "amountCollected",
              "type": "uint256"
            },
            {
              "internalType": "string",
              "name": "image",
              "type": "string"
            },
            {
              "internalType": "address[]",
              "name": "donators",
              "type": "address[]"
            },
            {
              "internalType": "uint256[]",
              "name": "donations",
              "type": "uint256[]"
            },
            {
              "internalType": "bool",
              "name": "withdrawn",
              "type": "bool"
            },
            {
              "internalType": "bool",
              "name": "canceled",
              "type": "bool"
            }
          ],
          "internalType": "struct CrowdFunding.Campaign",
          "name": "",
          "type": "tuple"
        }
      ],
      "stateMutability": "view",
      "type": "function"
    },
    {
      "inputs": [],
      "name": "getCampaigns",
      "outputs": [
        {
          "components": [
            {
              "internalType": "address",
              "name": "owner",
              "type": "address"
            },
            {
              "internalType": "string",
              "name": "title",
              "type": "string"
            },
            {
              "internalType": "string",
              "name": "description",
              "type": "string"
            },
            {
              "internalType": "string",
              "name": "campaignType",
              "type": "string"
            },
            {
              "internalType": "uint256",
              "name": "target",
              "type": "uint256"
            },
            {
              "internalType": "uint256",
              "name": "deadline",
              "type": "uint256"
            },
            {
              "internalType": "uint256",
              "name": "amountCollected",
              "type": "uint256"
            },
            {
              "internalType": "string",
              "name": "image",
              "type": "string"
            },
            {
              "internalType": "address[]",
              "name": "donators",
              "type": "address[]"
            },
            {
              "internalType": "uint256[]",
              "name": "donations",
              "type": "uint256[]"
            },
            {
              "internalType": "bool",
              "name": "withdrawn",
              "type": "bool"
            },
            {
              "internalType": "bool",
              "name": "canceled",
              "type": "bool"
            }
          ],
          "internalType": "struct CrowdFunding.Campaign[]",
          "name": "",
          "type": "tuple[]"
        }
      ],
      "stateMutability": "view",
      "type": "function"
    },
    {
      "inputs": [
        {
          "internalType": "uint256",
          "name": "_id",
          "type": "uint256"
        }
      ],
      "name": "getDonators",
      "outputs": [
        {
          "internalType": "address[]",
          "name": "",
          "type": "address[]"
        },
        {
          "internalType": "uint256[]",
          "name": "",
          "type": "uint256[]"
        }
      ],
      "stateMutability": "view",
      "type": "function"
    },
    {
      "inputs": [],
      "name": "numberOfCampaigns",
      "outputs": [
        {
          "internalType": "uint256",
          "name": "",
          "type": "uint256"
        }
      ],
      "stateMutability": "view",
      "type": "function"
    },
    {
      "inputs": [
        {
          "internalType": "address",
          "name": "_user",
          "type": "address"
        }
      ],
      "name": "paymentDetails",
      "outputs": [
        {
          "components": [
            {
              "internalType": "uint256",
              "name": "campaignId",
              "type": "uint256"
            },
            {
              "internalType": "uint256",
              "name": "amount",
              "type": "uint256"
            },
            {
              "internalType": "uint256",
              "name": "timestamp",
              "type": "uint256"
            },
            {
              "internalType": "string",
              "name": "paymentType",
              "type": "string"
            }
          ],
          "internalType": "struct CrowdFunding.PaymentDetail[]",
          "name": "",
          "type": "tuple[]"
        }
      ],
      "stateMutability": "view",
      "type": "function"
    },
    {
      "inputs": [
        {
          "internalType": "address",
          "name": "",
          "type": "address"
        },
        {
          "internalType": "uint256",
          "name": "",
          "type": "uint256"
        }
      ],
      "name": "userPayments",
      "outputs": [
        {
          "internalType": "uint256",
          "name": "campaignId",
          "type": "uint256"
        },
        {
          "internalType": "uint256",
          "name": "amount",
          "type": "uint256"
        },
        {
          "internalType": "uint256",
          "name": "timestamp",
          "type": "uint256"
        },
        {
          "internalType": "string",
          "name": "paymentType",
          "type": "string"
        }
      ],
      "stateMutability": "view",
      "type": "function"
    },
    {
      "inputs": [
        {
          "internalType": "uint256",
          "name": "_id",
          "type": "uint256"
        }
      ],
      "name": "withdraw",
      "outputs": [],
      "stateMutability": "nonpayable",
      "type": "function"
    }
  ],
  "bytecode": "0x60806040526000600255348015601457600080fd5b50613a22806100246000396000f3fe60806040526004361061009c5760003560e01c806345598b4a1161006457806345598b4a146101955780637660be5d146101be57806388c49637146101fb5780638cfeab3514610238578063a6b0363314610278578063e6ffcaa1146102a35761009c565b806307ca140d146100a15780630fa91fa9146100cc578063141961bc1461010a5780632e1a7d4d1461015057806342a4fda814610179575b600080fd5b3480156100ad57600080fd5b506100b66102e0565b6040516100c39190612152565b60405180910390f35b3480156100d857600080fd5b506100f360048036038101906100ee91906121ad565b6102e6565b604051610101929190612388565b60405180910390f35b34801561011657600080fd5b50610131600480360381019061012c91906121ad565b61043a565b6040516101479a99989796959493929190612479565b60405180910390f35b34801561015c57600080fd5b50610177600480360381019061017291906121ad565b6106e8565b005b610193600480360381019061018e91906121ad565b610b17565b005b3480156101a157600080fd5b506101bc60048036038101906101b791906121ad565b610f06565b005b3480156101ca57600080fd5b506101e560048036038101906101e09190612692565b611384565b6040516101f29190612152565b60405180910390f35b34801561020757600080fd5b50610222600480360381019061021d91906127a4565b6115ba565b60405161022f9190612940565b60405180910390f35b34801561024457600080fd5b5061025f600480360381019061025a9190612962565b611708565b60405161026f94939291906129a2565b60405180910390f35b34801561028457600080fd5b5061028d6117dd565b60405161029a9190612cc4565b60405180910390f35b3480156102af57600080fd5b506102ca60048036038101906102c591906121ad565b611c75565b6040516102d79190612e0d565b60405180910390f35b60025481565b606080600254831061032d576040517f08c379a000000000000000000000000000000000000000000000000000000000815260040161032490612e7b565b60405180910390fd5b600080848152602001908152602001600020600801600080858152602001908152602001600020600901818054806020026020016040519081016040528092919081815260200182805480156103d857602002820191906000526020600020905b8160009054906101000a900473ffffffffffffffffffffffffffffffffffffffff1673ffffffffffffffffffffffffffffffffffffffff168152602001906001019080831161038e575b505050505091508080548060200260200160405190810160405280929190818152602001828054801561042a57602002820191906000526020600020905b815481526020019060010190808311610416575b5050505050905091509150915091565b60006020528060005260406000206000915090508060000160009054906101000a900473ffffffffffffffffffffffffffffffffffffffff169080600101805461048390612eca565b80601f01602080910402602001604051908101604052809291908181526020018280546104af90612eca565b80156104fc5780601f106104d1576101008083540402835291602001916104fc565b820191906000526020600020905b8154815290600101906020018083116104df57829003601f168201915b50505050509080600201805461051190612eca565b80601f016020809104026020016040519081016040528092919081815260200182805461053d90612eca565b801561058a5780601f1061055f5761010080835404028352916020019161058a565b820191906000526020600020905b81548152906001019060200180831161056d57829003601f168201915b50505050509080600301805461059f90612eca565b80601f01602080910402602001604051908101604052809291908181526020018280546105cb90612eca565b80156106185780601f106105ed57610100808354040283529160200191610618565b820191906000526020600020905b8154815290600101906020018083116105fb57829003601f168201915b50505050509080600401549080600501549080600601549080600701805461063f90612eca565b80601f016020809104026020016040519081016040528092919081815260200182805461066b90612eca565b80156106b85780601f1061068d576101008083540402835291602001916106b8565b820191906000526020600020905b81548152906001019060200180831161069b57829003601f168201915b50505050509080600a0160009054906101000a900460ff169080600a0160019054906101000a900460ff1690508a565b600080600083815260200190815260200160002090506002548210610742576040517f08c379a000000000000000000000000000000000000000000000000000000000815260040161073990612e7b565b60405180910390fd5b8060000160009054906101000a900473ffffffffffffffffffffffffffffffffffffffff1673ffffffffffffffffffffffffffffffffffffffff163373ffffffffffffffffffffffffffffffffffffffff16146107d4576040517f08c379a00000000000000000000000000000000000000000000000000000000081526004016107cb90612f47565b60405180910390fd5b806005015442101561081b576040517f08c379a000000000000000000000000000000000000000000000000000000000815260040161081290612fd9565b60405180910390fd5b80600a0160009054906101000a900460ff161561086d576040517f08c379a000000000000000000000000000000000000000000000000000000000815260040161086490613045565b60405180910390fd5b60008160060154116108b4576040517f08c379a00000000000000000000000000000000000000000000000000000000081526004016108ab906130b1565b60405180910390fd5b60008160060154905060008260000160009054906101000a900473ffffffffffffffffffffffffffffffffffffffff1673ffffffffffffffffffffffffffffffffffffffff168260405161090790613102565b60006040518083038185875af1925050503d8060008114610944576040519150601f19603f3d011682016040523d82523d6000602084013e610949565b606091505b505090508061098d576040517f08c379a000000000000000000000000000000000000000000000000000000000815260040161098490613163565b60405180910390fd5b600183600a0160006101000a81548160ff021916908315150217905550600160003373ffffffffffffffffffffffffffffffffffffffff1673ffffffffffffffffffffffffffffffffffffffff16815260200190815260200160002060405180608001604052808681526020018481526020014281526020016040518060400160405280600a81526020017f7769746864726177616c0000000000000000000000000000000000000000000081525081525090806001815401808255809150506001900390600052602060002090600402016000909190919091506000820151816000015560208201518160010155604082015181600201556060820151816003019081610a9b919061332f565b5050508260000160009054906101000a900473ffffffffffffffffffffffffffffffffffffffff1673ffffffffffffffffffffffffffffffffffffffff16847ff440aec6b52895984d061d622e6edeba6210f7c3e059be920663140c084560d784604051610b099190612152565b60405180910390a350505050565b6002548110610b5b576040517f08c379a0000000000000000000000000000000000000000000000000000000008152600401610b5290612e7b565b60405180910390fd5b60003490506000806000848152602001908152602001600020905060008211610bb9576040517f08c379a0000000000000000000000000000000000000000000000000000000008152600401610bb09061344d565b60405180910390fd5b8060040154828260060154610bce919061349c565b1115610c0f576040517f08c379a0000000000000000000000000000000000000000000000000000000008152600401610c0690613542565b60405180910390fd5b80600a0160019054906101000a900460ff1615610c61576040517f08c379a0000000000000000000000000000000000000000000000000000000008152600401610c58906135d4565b60405180910390fd5b81816006016000828254610c75919061349c565b9250508190555080600801339080600181540180825580915050600190039060005260206000200160009091909190916101000a81548173ffffffffffffffffffffffffffffffffffffffff021916908373ffffffffffffffffffffffffffffffffffffffff16021790555080600901829080600181540180825580915050600190039060005260206000200160009091909190915055600160003373ffffffffffffffffffffffffffffffffffffffff1673ffffffffffffffffffffffffffffffffffffffff16815260200190815260200160002060405180608001604052808581526020018481526020014281526020016040518060400160405280600881526020017f646f6e6174696f6e00000000000000000000000000000000000000000000000081525081525090806001815401808255809150506001900390600052602060002090600402016000909190919091506000820151816000015560208201518160010155604082015181600201556060820151816003019081610dfd919061332f565b5050503373ffffffffffffffffffffffffffffffffffffffff168160000160009054906101000a900473ffffffffffffffffffffffffffffffffffffffff1673ffffffffffffffffffffffffffffffffffffffff16847f43287c3057ca71c2f01d2236b70a9e5376f802564d6de4e42634af8cf0e3f18a85604051610e829190612152565b60405180910390a48060000160009054906101000a900473ffffffffffffffffffffffffffffffffffffffff1673ffffffffffffffffffffffffffffffffffffffff16837fcfd7a0a4d76423380d97cb47d5f3e9a633232f159190c7899f21404b5b2cfd7f8360060154604051610ef99190612152565b60405180910390a3505050565b600080600083815260200190815260200160002090506002548210610f60576040517f08c379a0000000000000000000000000000000000000000000000000000000008152600401610f5790612e7b565b60405180910390fd5b8060000160009054906101000a900473ffffffffffffffffffffffffffffffffffffffff1673ffffffffffffffffffffffffffffffffffffffff163373ffffffffffffffffffffffffffffffffffffffff1614610ff2576040517f08c379a0000000000000000000000000000000000000000000000000000000008152600401610fe990613666565b60405180910390fd5b80600a0160019054906101000a900460ff1615611044576040517f08c379a000000000000000000000000000000000000000000000000000000000815260040161103b906136d2565b60405180910390fd5b8060050154421061108a576040517f08c379a00000000000000000000000000000000000000000000000000000000081526004016110819061373e565b60405180910390fd5b60005b81600801805490508110156112fa5760008260080182815481106110b4576110b361375e565b5b9060005260206000200160009054906101000a900473ffffffffffffffffffffffffffffffffffffffff16905060008360090183815481106110f9576110f861375e565b5b9060005260206000200154905060008273ffffffffffffffffffffffffffffffffffffffff168260405161112c90613102565b60006040518083038185875af1925050503d8060008114611169576040519150601f19603f3d011682016040523d82523d6000602084013e61116e565b606091505b50509050806111b2576040517f08c379a00000000000000000000000000000000000000000000000000000000081526004016111a9906137ff565b60405180910390fd5b600160008473ffffffffffffffffffffffffffffffffffffffff1673ffffffffffffffffffffffffffffffffffffffff16815260200190815260200160002060405180608001604052808881526020018481526020014281526020016040518060400160405280600681526020017f726566756e640000000000000000000000000000000000000000000000000000815250815250908060018154018082558091505060019003906000526020600020906004020160009091909190915060008201518160000155602082015181600101556040820151816002015560608201518160030190816112a3919061332f565b5050508273ffffffffffffffffffffffffffffffffffffffff16867f9a9d4b2133b6673545e167237cbd0607748ce23df24ff22368225c6584c3d39060405160405180910390a3505050808060010191505061108d565b50600181600a0160016101000a81548160ff0219169083151502179055508060000160009054906101000a900473ffffffffffffffffffffffffffffffffffffffff1673ffffffffffffffffffffffffffffffffffffffff16827f25bb0f0e925ec8edc724967ade03262a3ab8fd67d63d7d3d002523d366297bca60405160405180910390a35050565b600080600080600254815260200190815260200160002090504284116113df576040517f08c379a00000000000000000000000000000000000000000000000000000000081526004016113d690613891565b60405180910390fd5b3373ffffffffffffffffffffffffffffffffffffffff168973ffffffffffffffffffffffffffffffffffffffff161461144d576040517f08c379a0000000000000000000000000000000000000000000000000000000008152600401611444906138fd565b60405180910390fd5b888160000160006101000a81548173ffffffffffffffffffffffffffffffffffffffff021916908373ffffffffffffffffffffffffffffffffffffffff160217905550878160010190816114a1919061332f565b50868160020190816114b3919061332f565b50858160030190816114c5919061332f565b5084816004018190555083816005018190555060008160060181905550828160070190816114f3919061332f565b50600081600a0160006101000a81548160ff021916908315150217905550600081600a0160016101000a81548160ff0219169083151502179055508873ffffffffffffffffffffffffffffffffffffffff166002547ff9bef86f202a8a7ac47c00e895ac2c191749da86fd955af550e31f9a52207bdb8a88888860405161157d949392919061391d565b60405180910390a36002600081548092919061159890613970565b919050555060016002546115ac91906139b8565b915050979650505050505050565b6060600160008373ffffffffffffffffffffffffffffffffffffffff1673ffffffffffffffffffffffffffffffffffffffff168152602001908152602001600020805480602002602001604051908101604052809291908181526020016000905b828210156116fd578382906000526020600020906004020160405180608001604052908160008201548152602001600182015481526020016002820154815260200160038201805461166c90612eca565b80601f016020809104026020016040519081016040528092919081815260200182805461169890612eca565b80156116e55780601f106116ba576101008083540402835291602001916116e5565b820191906000526020600020905b8154815290600101906020018083116116c857829003601f168201915b5050505050815250508152602001906001019061161b565b505050509050919050565b6001602052816000526040600020818154811061172457600080fd5b90600052602060002090600402016000915091505080600001549080600101549080600201549080600301805461175a90612eca565b80601f016020809104026020016040519081016040528092919081815260200182805461178690612eca565b80156117d35780601f106117a8576101008083540402835291602001916117d3565b820191906000526020600020905b8154815290600101906020018083116117b657829003601f168201915b5050505050905084565b6060600060025467ffffffffffffffff8111156117fd576117fc612567565b5b60405190808252806020026020018201604052801561183657816020015b6118236120be565b81526020019060019003908161181b5790505b50905060005b600254811015611c6d576000806000838152602001908152602001600020905080604051806101800160405290816000820160009054906101000a900473ffffffffffffffffffffffffffffffffffffffff1673ffffffffffffffffffffffffffffffffffffffff1673ffffffffffffffffffffffffffffffffffffffff1681526020016001820180546118cf90612eca565b80601f01602080910402602001604051908101604052809291908181526020018280546118fb90612eca565b80156119485780601f1061191d57610100808354040283529160200191611948565b820191906000526020600020905b81548152906001019060200180831161192b57829003601f168201915b5050505050815260200160028201805461196190612eca565b80601f016020809104026020016040519081016040528092919081815260200182805461198d90612eca565b80156119da5780601f106119af576101008083540402835291602001916119da565b820191906000526020600020905b8154815290600101906020018083116119bd57829003601f168201915b505050505081526020016003820180546119f390612eca565b80601f0160208091040260200160405190810160405280929190818152602001828054611a1f90612eca565b8015611a6c5780601f10611a4157610100808354040283529160200191611a6c565b820191906000526020600020905b815481529060010190602001808311611a4f57829003601f168201915b50505050508152602001600482015481526020016005820154815260200160068201548152602001600782018054611aa390612eca565b80601f0160208091040260200160405190810160405280929190818152602001828054611acf90612eca565b8015611b1c5780601f10611af157610100808354040283529160200191611b1c565b820191906000526020600020905b815481529060010190602001808311611aff57829003601f168201915b5050505050815260200160088201805480602002602001604051908101604052809291908181526020018280548015611baa57602002820191906000526020600020905b8160009054906101000a900473ffffffffffffffffffffffffffffffffffffffff1673ffffffffffffffffffffffffffffffffffffffff1681526020019060010190808311611b60575b5050505050815260200160098201805480602002602001604051908101604052809291908181526020018280548015611c0257602002820191906000526020600020905b815481526020019060010190808311611bee575b50505050508152602001600a820160009054906101000a900460ff16151515158152602001600a820160019054906101000a900460ff161515151581525050838381518110611c5457611c5361375e565b5b602002602001018190525050808060010191505061183c565b508091505090565b611c7d6120be565b6002548210611cc1576040517f08c379a0000000000000000000000000000000000000000000000000000000008152600401611cb890612e7b565b60405180910390fd5b600080838152602001908152602001600020604051806101800160405290816000820160009054906101000a900473ffffffffffffffffffffffffffffffffffffffff1673ffffffffffffffffffffffffffffffffffffffff1673ffffffffffffffffffffffffffffffffffffffff168152602001600182018054611d4590612eca565b80601f0160208091040260200160405190810160405280929190818152602001828054611d7190612eca565b8015611dbe5780601f10611d9357610100808354040283529160200191611dbe565b820191906000526020600020905b815481529060010190602001808311611da157829003601f168201915b50505050508152602001600282018054611dd790612eca565b80601f0160208091040260200160405190810160405280929190818152602001828054611e0390612eca565b8015611e505780601f10611e2557610100808354040283529160200191611e50565b820191906000526020600020905b815481529060010190602001808311611e3357829003601f168201915b50505050508152602001600382018054611e6990612eca565b80601f0160208091040260200160405190810160405280929190818152602001828054611e9590612eca565b8015611ee25780601f10611eb757610100808354040283529160200191611ee2565b820191906000526020600020905b815481529060010190602001808311611ec557829003601f168201915b50505050508152602001600482015481526020016005820154815260200160068201548152602001600782018054611f1990612eca565b80601f0160208091040260200160405190810160405280929190818152602001828054611f4590612eca565b8015611f925780601f10611f6757610100808354040283529160200191611f92565b820191906000526020600020905b815481529060010190602001808311611f7557829003601f168201915b505050505081526020016008820180548060200260200160405190810160405280929190818152602001828054801561202057602002820191906000526020600020905b8160009054906101000a900473ffffffffffffffffffffffffffffffffffffffff1673ffffffffffffffffffffffffffffffffffffffff1681526020019060010190808311611fd6575b505050505081526020016009820180548060200260200160405190810160405280929190818152602001828054801561207857602002820191906000526020600020905b815481526020019060010190808311612064575b50505050508152602001600a820160009054906101000a900460ff16151515158152602001600a820160019054906101000a900460ff1615151515815250509050919050565b604051806101800160405280600073ffffffffffffffffffffffffffffffffffffffff1681526020016060815260200160608152602001606081526020016000815260200160008152602001600081526020016060815260200160608152602001606081526020016000151581526020016000151581525090565b6000819050919050565b61214c81612139565b82525050565b60006020820190506121676000830184612143565b92915050565b6000604051905090565b600080fd5b600080fd5b61218a81612139565b811461219557600080fd5b50565b6000813590506121a781612181565b92915050565b6000602082840312156121c3576121c2612177565b5b60006121d184828501612198565b91505092915050565b600081519050919050565b600082825260208201905092915050565b6000819050602082019050919050565b600073ffffffffffffffffffffffffffffffffffffffff82169050919050565b600061223182612206565b9050919050565b61224181612226565b82525050565b60006122538383612238565b60208301905092915050565b6000602082019050919050565b6000612277826121da565b61228181856121e5565b935061228c836121f6565b8060005b838110156122bd5781516122a48882612247565b97506122af8361225f565b925050600181019050612290565b5085935050505092915050565b600081519050919050565b600082825260208201905092915050565b6000819050602082019050919050565b6122ff81612139565b82525050565b600061231183836122f6565b60208301905092915050565b6000602082019050919050565b6000612335826122ca565b61233f81856122d5565b935061234a836122e6565b8060005b8381101561237b5781516123628882612305565b975061236d8361231d565b92505060018101905061234e565b5085935050505092915050565b600060408201905081810360008301526123a2818561226c565b905081810360208301526123b6818461232a565b90509392505050565b6123c881612226565b82525050565b600081519050919050565b600082825260208201905092915050565b60005b838110156124085780820151818401526020810190506123ed565b60008484015250505050565b6000601f19601f8301169050919050565b6000612430826123ce565b61243a81856123d9565b935061244a8185602086016123ea565b61245381612414565b840191505092915050565b60008115159050919050565b6124738161245e565b82525050565b60006101408201905061248f600083018d6123bf565b81810360208301526124a1818c612425565b905081810360408301526124b5818b612425565b905081810360608301526124c9818a612425565b90506124d86080830189612143565b6124e560a0830188612143565b6124f260c0830187612143565b81810360e08301526125048186612425565b905061251461010083018561246a565b61252261012083018461246a565b9b9a5050505050505050505050565b61253a81612226565b811461254557600080fd5b50565b60008135905061255781612531565b92915050565b600080fd5b600080fd5b7f4e487b7100000000000000000000000000000000000000000000000000000000600052604160045260246000fd5b61259f82612414565b810181811067ffffffffffffffff821117156125be576125bd612567565b5b80604052505050565b60006125d161216d565b90506125dd8282612596565b919050565b600067ffffffffffffffff8211156125fd576125fc612567565b5b61260682612414565b9050602081019050919050565b82818337600083830152505050565b6000612635612630846125e2565b6125c7565b90508281526020810184848401111561265157612650612562565b5b61265c848285612613565b509392505050565b600082601f8301126126795761267861255d565b5b8135612689848260208601612622565b91505092915050565b600080600080600080600060e0888a0312156126b1576126b0612177565b5b60006126bf8a828b01612548565b975050602088013567ffffffffffffffff8111156126e0576126df61217c565b5b6126ec8a828b01612664565b965050604088013567ffffffffffffffff81111561270d5761270c61217c565b5b6127198a828b01612664565b955050606088013567ffffffffffffffff81111561273a5761273961217c565b5b6127468a828b01612664565b94505060806127578a828b01612198565b93505060a06127688a828b01612198565b92505060c088013567ffffffffffffffff8111156127895761278861217c565b5b6127958a828b01612664565b91505092959891949750929550565b6000602082840312156127ba576127b9612177565b5b60006127c884828501612548565b91505092915050565b600081519050919050565b600082825260208201905092915050565b6000819050602082019050919050565b600082825260208201905092915050565b6000612819826123ce565b61282381856127fd565b93506128338185602086016123ea565b61283c81612414565b840191505092915050565b600060808301600083015161285f60008601826122f6565b50602083015161287260208601826122f6565b50604083015161288560408601826122f6565b506060830151848203606086015261289d828261280e565b9150508091505092915050565b60006128b68383612847565b905092915050565b6000602082019050919050565b60006128d6826127d1565b6128e081856127dc565b9350836020820285016128f2856127ed565b8060005b8581101561292e578484038952815161290f85826128aa565b945061291a836128be565b925060208a019950506001810190506128f6565b50829750879550505050505092915050565b6000602082019050818103600083015261295a81846128cb565b905092915050565b6000806040838503121561297957612978612177565b5b600061298785828601612548565b925050602061299885828601612198565b9150509250929050565b60006080820190506129b76000830187612143565b6129c46020830186612143565b6129d16040830185612143565b81810360608301526129e38184612425565b905095945050505050565b600081519050919050565b600082825260208201905092915050565b6000819050602082019050919050565b600082825260208201905092915050565b6000612a36826121da565b612a408185612a1a565b9350612a4b836121f6565b8060005b83811015612a7c578151612a638882612247565b9750612a6e8361225f565b925050600181019050612a4f565b5085935050505092915050565b600082825260208201905092915050565b6000612aa5826122ca565b612aaf8185612a89565b9350612aba836122e6565b8060005b83811015612aeb578151612ad28882612305565b9750612add8361231d565b925050600181019050612abe565b5085935050505092915050565b612b018161245e565b82525050565b600061018083016000830151612b206000860182612238565b5060208301518482036020860152612b38828261280e565b91505060408301518482036040860152612b52828261280e565b91505060608301518482036060860152612b6c828261280e565b9150506080830151612b8160808601826122f6565b5060a0830151612b9460a08601826122f6565b5060c0830151612ba760c08601826122f6565b5060e083015184820360e0860152612bbf828261280e565b915050610100830151848203610100860152612bdb8282612a2b565b915050610120830151848203610120860152612bf78282612a9a565b915050610140830151612c0e610140860182612af8565b50610160830151612c23610160860182612af8565b508091505092915050565b6000612c3a8383612b07565b905092915050565b6000602082019050919050565b6000612c5a826129ee565b612c6481856129f9565b935083602082028501612c7685612a0a565b8060005b85811015612cb25784840389528151612c938582612c2e565b9450612c9e83612c42565b925060208a01995050600181019050612c7a565b50829750879550505050505092915050565b60006020820190508181036000830152612cde8184612c4f565b905092915050565b600061018083016000830151612cff6000860182612238565b5060208301518482036020860152612d17828261280e565b91505060408301518482036040860152612d31828261280e565b91505060608301518482036060860152612d4b828261280e565b9150506080830151612d6060808601826122f6565b5060a0830151612d7360a08601826122f6565b5060c0830151612d8660c08601826122f6565b5060e083015184820360e0860152612d9e828261280e565b915050610100830151848203610100860152612dba8282612a2b565b915050610120830151848203610120860152612dd68282612a9a565b915050610140830151612ded610140860182612af8565b50610160830151612e02610160860182612af8565b508091505092915050565b60006020820190508181036000830152612e278184612ce6565b905092915050565b7f496e76616c696420696400000000000000000000000000000000000000000000600082015250565b6000612e65600a836123d9565b9150612e7082612e2f565b602082019050919050565b60006020820190508181036000830152612e9481612e58565b9050919050565b7f4e487b7100000000000000000000000000000000000000000000000000000000600052602260045260246000fd5b60006002820490506001821680612ee257607f821691505b602082108103612ef557612ef4612e9b565b5b50919050565b7f4f6e6c7920746865206f776e65722063616e2077697468647261770000000000600082015250565b6000612f31601b836123d9565b9150612f3c82612efb565b602082019050919050565b60006020820190508181036000830152612f6081612f24565b9050919050565b7f43616e6e6f74207769746864726177206265666f72652074686520646561646c60008201527f696e650000000000000000000000000000000000000000000000000000000000602082015250565b6000612fc36023836123d9565b9150612fce82612f67565b604082019050919050565b60006020820190508181036000830152612ff281612fb6565b9050919050565b7f46756e647320616c72656164792077697468647261776e000000000000000000600082015250565b600061302f6017836123d9565b915061303a82612ff9565b602082019050919050565b6000602082019050818103600083015261305e81613022565b9050919050565b7f4e6f2066756e647320746f207769746864726177000000000000000000000000600082015250565b600061309b6014836123d9565b91506130a682613065565b602082019050919050565b600060208201905081810360008301526130ca8161308e565b9050919050565b600081905092915050565b50565b60006130ec6000836130d1565b91506130f7826130dc565b600082019050919050565b600061310d826130df565b9150819050919050565b7f5769746864726177616c206661696c6564000000000000000000000000000000600082015250565b600061314d6011836123d9565b915061315882613117565b602082019050919050565b6000602082019050818103600083015261317c81613140565b9050919050565b60008190508160005260206000209050919050565b60006020601f8301049050919050565b600082821b905092915050565b6000600883026131e57fffffffffffffffffffffffffffffffffffffffffffffffffffffffffffffffff826131a8565b6131ef86836131a8565b95508019841693508086168417925050509392505050565b6000819050919050565b600061322c61322761322284612139565b613207565b612139565b9050919050565b6000819050919050565b61324683613211565b61325a61325282613233565b8484546131b5565b825550505050565b600090565b61326f613262565b61327a81848461323d565b505050565b5b8181101561329e57613293600082613267565b600181019050613280565b5050565b601f8211156132e3576132b481613183565b6132bd84613198565b810160208510156132cc578190505b6132e06132d885613198565b83018261327f565b50505b505050565b600082821c905092915050565b6000613306600019846008026132e8565b1980831691505092915050565b600061331f83836132f5565b9150826002028217905092915050565b613338826123ce565b67ffffffffffffffff81111561335157613350612567565b5b61335b8254612eca565b6133668282856132a2565b600060209050601f8311600181146133995760008415613387578287015190505b6133918582613313565b8655506133f9565b601f1984166133a786613183565b60005b828110156133cf578489015182556001820191506020850194506020810190506133aa565b868310156133ec57848901516133e8601f8916826132f5565b8355505b6001600288020188555050505b505050505050565b7f43616e6e6f7420646f6e61746520302065746865720000000000000000000000600082015250565b60006134376015836123d9565b915061344282613401565b602082019050919050565b600060208201905081810360008301526134668161342a565b9050919050565b7f4e487b7100000000000000000000000000000000000000000000000000000000600052601160045260246000fd5b60006134a782612139565b91506134b283612139565b92508282019050808211156134ca576134c961346d565b5b92915050565b7f53686f756c64206e6f74206578636565642063616d706169676e20746172676560008201527f7400000000000000000000000000000000000000000000000000000000000000602082015250565b600061352c6021836123d9565b9150613537826134d0565b604082019050919050565b6000602082019050818103600083015261355b8161351f565b9050919050565b7f43616e6e6f7420646f6e61746520746f20612063616e63656c65642063616d7060008201527f6169676e00000000000000000000000000000000000000000000000000000000602082015250565b60006135be6024836123d9565b91506135c982613562565b604082019050919050565b600060208201905081810360008301526135ed816135b1565b9050919050565b7f4f6e6c7920746865206f776e65722063616e2063616e63656c2074686520636160008201527f6d706169676e0000000000000000000000000000000000000000000000000000602082015250565b60006136506026836123d9565b915061365b826135f4565b604082019050919050565b6000602082019050818103600083015261367f81613643565b9050919050565b7f43616d706169676e20697320616c72656164792063616e63656c656400000000600082015250565b60006136bc601c836123d9565b91506136c782613686565b602082019050919050565b600060208201905081810360008301526136eb816136af565b9050919050565b7f43616e6e6f742063616e63656c2061667465722074686520646561646c696e65600082015250565b60006137286020836123d9565b9150613733826136f2565b602082019050919050565b600060208201905081810360008301526137578161371b565b9050919050565b7f4e487b7100000000000000000000000000000000000000000000000000000000600052603260045260246000fd5b7f526566756e64206661696c656420666f72206f6e65206f662074686520646f6e60008201527f61746f7273000000000000000000000000000000000000000000000000000000602082015250565b60006137e96025836123d9565b91506137f48261378d565b604082019050919050565b60006020820190508181036000830152613818816137dc565b9050919050565b7f54686520646561646c696e652073686f756c642062652061206461746520696e60008201527f20746865206675747572652e0000000000000000000000000000000000000000602082015250565b600061387b602c836123d9565b91506138868261381f565b604082019050919050565b600060208201905081810360008301526138aa8161386e565b9050919050565b7f4f6e6c79206f776e65722063726561746573207468652063616d706169676e00600082015250565b60006138e7601f836123d9565b91506138f2826138b1565b602082019050919050565b60006020820190508181036000830152613916816138da565b9050919050565b600060808201905081810360008301526139378187612425565b90506139466020830186612143565b6139536040830185612143565b81810360608301526139658184612425565b905095945050505050565b600061397b82612139565b91507fffffffffffffffffffffffffffffffffffffffffffffffffffffffffffffffff82036139ad576139ac61346d565b5b600182019050919050565b60006139c382612139565b91506139ce83612139565b92508282039050818111156139e6576139e561346d565b5b9291505056fea264697066735822122049cd8b8a7b8c13f214c29b1a014d715e9c8e0f1a2f2ce94c845f9c9cf90c333964736f6c634300081c0033",
  "linkReferences": {},
  "deployedLinkReferences": {}
}